:020000040800F2
:100000000000012011030008190300081D03000867
:10001000990300089D030008E503000800000000A4
:100020000000000000000000000000002D04000897
:1000300031040008000000003504000839040008FD
:10004000490400084904000849040008490400085C
:10005000490400084904000849040008490400084C
:10006000490400084904000849040008490400083C
:10007000490400084904000849040008490400082C
:10008000490400084904000849040008490400081C
:10009000490400084904000849040008490400080C
:1000A00049040008490400084904000849040008FC
:1000B00049040008490400084904000849040008EC
:1000C00049040008490400084904000849040008DC
:1000D00049040008490400084904000849040008CC
:1000E00049040008490400084904000849040008BC
:1000F00049040008490400084904000849040008AC
:10010000490400084904000849040008490400089B
:10011000490400084904000849040008490400088B
:10012000490400084904000849040008490400087B
:1001300000000000000000000000000000000000BF
:1001400000000000000000000000000000000000AF
:10015000000000000000000000000000000000009F
:10016000000000000000000000000000000000008F
:10017000000000000000000000000000000000007F
:10018000000000000000000000000000000000006F
:10019000000000000000000000000000000000005F
:1001A000000000000000000000000000000000004F
:1001B000000000000000000000000000000000003F
:1001C000000000000000000000000000000000002F
:1001D000000000000000000000000000000000001F
:1001E0005FF8E0F100B583B000F076FE364A374B99
:1001F0003749384D384C9A42296021600DD2D0439E
:1002000036490344084623F0030304330B4450F8F3
:10021000041B984242F8041BF9D12A68304B9A42D9
:1002200000D0FEE722682F4B9A42FAD12E4A2F4B7C
:1002300027492F4C2F489A42216001600BD2D543A9
:1002400011462B4423F0030304331344002241F8E6
:10025000042B9942FAD1236803B1FEE70368002B0F
:10026000FBD100F03BFE684601A900F0C5FD224C21
:10027000224B1B1B032BC8BFE51804DD54F8043BBD
:100280009847AC42FAD11E4C1E4B1B1B032BC8BF18
:10029000E51804DD54F8043B9847AC42FAD19DE8D8
:1002A000030001F0F1FB184C184B0546E41A032C2F
:1002B00006DD1E461C4454F8043D9847B442FAD16A
:1002C000284600F06DFD00BF00000020D400002093
:1002D000BABADECA00000020D0000020784C000826
:1002E0007856341232547698D400002078030020D7
:1002F000D4000020740300204C0400084C040008C3
:100300004C0400085004000854040008500400087D
:1003100008B5FFF767FF00BF00BEFEE71EF0040F41
:100320000CBFEFF30880EFF309807146434A104792
:100330002DE9F043164C83B0D4F83480A76BD4F881
:100340002890236B9B0702D5E36A002B0DDB0D463B
:100350000446104800F064FD009520464946424698
:100360003B4600F0BDFD00BEFEE74BF6AB63856982
:100370002A889A42EBD10668033E012EE7D802355F
:100380004FF000438561E36203B0BDE8F08300BF36
:1003900000ED00E04448000800BEFEE71EF0040F38
:1003A0000CBFEFF30880EFF309807146244A104731
:1003B0002DE9F04188460546084C82B0676BA66B74
:1003C000A46A074800F02CFDCDF8008021463A468B
:1003D0003346284600F084FD00BEFEE700ED00E055
:1003E000544800081EF0040F0CBFEFF30880EFF331
:1003F00009807146134A10472DE9F04188460546A9
:10040000084C82B0676BA66BA46A074800F008FD31
:10041000CDF8008021463A463346284600F060FD7C
:1004200000BEFEE700ED00E06048000800BEFEE709
:1004300000BEFEE700BEFEE7704700003103000883
:0C044000B1030008F903000800BEFEE74D
:08044C007D1A0008D51A000812
:10045800F8B5564B044698420D461BD003F5806309
:10046800984217D003F58063984213D003F5806350
:1004780098420FD003F5806398420BD003F5806350
:10048800984207D003F58063984203D04848B221C8
:1004980000F0B6FCEE7816F0FB0F69D0282E67D076
:1004A800482E65D006F0F303102B6CD0B3214048DA
:1004B80000F0A6FC298819B93D48B42100F0A0FC39
:1004C800EB7803F00F06DB0662D4298811F0FF0FE2
:1004D80024D02768002202E00132082A1DD0012317
:1004E800934003EA01009842F6D14FEA820E0F23A7
:1004F80095F803C003FA0EF327EA0307BCF1280FA7
:1005080006FA0EF347EA03073BD0BCF1480F02F1A5
:10051800010208BF2061082AE1D12760FF292DD9EF
:100528006768002202E00132082A1FD002F10800A1
:100538000123834003EA01009842F4D14FEA820E76
:100548000F2395F803C003FA0EF327EA0307BCF15B
:10055800280F06FA0EF347EA030710D0BCF1480F3C
:1005680002F1010208BF2061082ADFD16760F8BDE7
:1005780029880029A0D006F00F06A7E7F8BD60611A
:10058800D1E76061A8E72988002995D006F00F0611
:10059800AB785A1E022A02D829881E4396E70448D7
:1005A800BB2100F02DFCAB78F6E700BF0008014046
:1005B800E845000838B5154B044698420D461CD04E
:1005C80003F58063984218D003F58063984214D0ED
:1005D80003F58063984210D003F5806398420CD0ED
:1005E80003F58063984208D003F58063984204D0ED
:1005F800074840F2691100F003FC25B904484FF49C
:10060800B57100F0FDFB256138BD00BF0008014051
:10061800E845000838B5154B044698420D461CD0ED
:1006280003F58063984218D003F58063984214D08C
:1006380003F58063984210D003F5806398420CD08C
:1006480003F58063984208D003F58063984204D08C
:10065800074840F2791100F0D3FB25B904484FF45C
:10066800BD7100F0CDFB656138BD00BF00080140D9
:10067800E8450008F0B55D4B87B0984204460D4642
:1006880007D003F58063984203D05948C62100F08B
:10069800B7FB2B68574A013B934200F28C80AB882A
:1006A80023F002022AB10A2B03D05148C82100F0D6
:1006B800A7FBEB88B3F5804F07D04BF6FF72934248
:1006C80003D04B48C92100F09BFB2B89B3F5806F01
:1006D80076D26B8923F480639BB2002B7AD1AB89E5
:1006E800C3F30E03B3F5804F03D04148CC2100F08B
:1006F80087FB01A8A68800F089FA039B3E4826F0EC
:100708003F06A0FB03203604800C360C87B23E431C
:10071800A68021882A6821F00101384E0904090CB5
:10072800B242218024D85200B3FBF2F39BB2032BD0
:1007380007F1010798BF04232784A38321886E89C2
:1007480089B241F0010121802388AA8823F48163BA
:1007580023F002032889A9891B0432431B0C134385
:1007680040EA01029BB292B22380228107B0F0BD19
:100778004BF6FF71EE888E4231D002EB820202EB1B
:100788008202B3FBF2F39BB243F48043C3F30B0240
:100798000AB943F001034FF4967202FB00F0184ABD
:1007A800C11782FB0002C1EBA212013292B243F4DC
:1007B80000432284C1E70E48C72100F021FB6EE701
:1007C8000B48CA2100F01CFB6B8923F480639BB2A1
:1007D800002B84D00648CB2100F012FB7FE702EB08
:1007E8004201B3FBF1F39BB2D0E700BF00540040D5
:1007F8001C4600087F1A060083DE1B43A086010002
:10080800D34D621038B5124B044698420D4608D0B5
:1008180003F58063984204D00E484FF4A97100F0A4
:10082800EFFA012D0AD90B4840F2531100F0E8FA0B
:1008380023889BB243F00103238038BD002DF7D1F4
:10084800238823F001031B041B0C238038BD00BF41
:10085800005400401C46000838B5124B0446984224
:100868000D4608D003F58063984204D00E484FF433
:10087800CD7100F0C5FA012D0AD90B4840F29B1141
:1008880000F0BEFA23889BB243F48073238038BDFE
:10089800002DF7D1238823F480731B041B0C2380BD
:1008A80038BD00BF005400401C46000838B5124B44
:1008B800044698420D4608D003F58063984204D058
:1008C8000E484FF4D97100F09BFA012D0AD90B4854
:1008D80040F2B31100F094FA23889BB243F40073FA
:1008E800238038BD002DF7D1238823F400731B041F
:1008F8001B0C238038BD00BF005400401C46000874
:1009080038B5124B044698420D4608D003F580636B
:10091800984204D00E484FF4E57100F071FA012DA9
:100928000AD90B4840F2CB1100F06AFA23889BB22F
:1009380043F48063238038BD002DF7D1238823F446
:1009480080631B041B0C238038BD00BF005400408B
:100958001C46000838B5084B054698420C4608D096
:1009680003F58063984204D0044840F2552100F012
:1009780047FAA4B22C8238BD005400401C46000837
:10098800084B10B59842044608D003F58063984296
:1009980004D0054840F2622100F032FA208AC0B241
:1009A80010BD00BF005400401C460008114B70B534
:1009B800984205460C46164608D003F580639842CF
:1009C80004D00D484FF41D7100F01AFA012E09D910
:1009D800094840F2752100F013FA44F00104A4B26A
:1009E8002C8270BD002EF8D104F0FE04A4B22C8233
:1009F80070BD00BF005400401C46000838B5134BBA
:100A0800044698420D4608D003F58063984204D006
:100A18000F484FF4377100F0F3F9B5F5006F0FD0B8
:100A28004FF2FF739D4204D0094840F2DD2100F0E7
:100A3800E7F9238823F400631B041B0C238038BDCB
:100A480023889BB243F40063238038BD00540040E0
:100A58001C46000838B5274B054698420C4608D076
:100A680003F58063984204D023484FF4876100F06F
:100A7800C7F9224A24F4803393422DD0B4F1021FDF
:100A88002AD01F4A24F00401914225D024F04002C4
:100A9800B2F5020F20D0B2F5901F1DD0194A93422B
:100AA8001AD0194A934217D0184B9C4214D0102CD4
:100AB80012D0A4F54033013B012B0DD9144B9C42B5
:100AC8000AD0144B9C4207D0B4F5806F04D00A4872
:100AD80040F2394100F094F9A88A2B8B80B240EAA1
:100AE800034024F07F431840201AB0FA80F04009F0
:100AF80038BD00BF005400401C46000882000600B4
:100B08008000860040000200840006008400160071
:100B1800800007000800030030B5384A83B000237E
:100B28009042009305460C46019307D0344B9842F7
:100B380004D0344840F29E4100F062F9B4F5000F49
:100B480044D0B4F5800F41D0B4F5001F3ED0B4F5C1
:100B5800801F3BD0B4F5802F38D0B4F5003F35D096
:100B6800B4F5803F32D0284B9C422FD0A3F5804368
:100B78009C422BD0B4F1102F28D0A3F560539C428F
:100B880024D0A3F580639C4220D0A3F500739C4237
:100B98001CD0A3F580739C4218D0803B9C4215D092
:100BA800403B9C4212D0303B9C420FD0083B9C42B9
:100BB8000CD0043B9C4209D004F17043013B012B4B
:100BC80004D9104840F29F4100F01AF9230F01950B
:100BD8000093009B24F07F4453B1019B143301938D
:100BE800019B1B681C4214BF0120002003B030BDCC
:100BF800019B240C18330193F2E700BF0054004016
:100C0800005800401C46000800800010214A30B4FB
:100C1800536803F00C03042B06D0082B25D01BB116
:100C28001D4A1346026001E01B4B0360194A1B4C26
:100C380051681B4DC1F30311615CCB40436051689F
:100C4800C1F30221615C23FA01F181605168C1F3AB
:100C5800C221615CCB40C3605268C2F38132AA5C96
:100C680030BCB3FBF2F30361704753685168C3F3B8
:100C78008343C90303F1020307D55268920304D4DE
:100C8800054A02FB03F30360D0E7064A02FB03F3BD
:100C98000360CBE70010024000127A000800002031
:100CA8000400002000093D0038B5104B04460340FD
:100CB8000D4663B958B1012D10D90D4840F24B418A
:100CC80000F09EF80B4A93691C43946138BD0848AC
:100CD80040F24A4100F094F8012DEED8002DF1D1F0
:100CE800044A936923EA0404946138BD0200C0FFF2
:100CF8004C4600080010024038B5104B044603402B
:100D08000D4663B958B1012D10D90D4840F26A411A
:100D180000F076F80B4AD3691C43D46138BD084803
:100D280040F2694100F06CF8012DEED8002DF1D1A8
:100D3800044AD36923EA0404D46138BD003601812A
:100D48004C4600080010024038B5104B04460340DA
:100D58000D4663B958B1012D10D90D4840F2C44170
:100D680000F04EF80B4A13691C43146138BD08485B
:100D780040F2C34100F044F8012DEED8002DF1D126
:100D8800044A136923EA0404146138BD003601815A
:100D98004C46000800100240FEE700BF08B50348B3
:100DA80000F054F80120FFF7F7FF00BF7C46000869
:100DB8000C4A08B50346106878B1033323F00303DF
:100DC800094903448B4201D8136008BD01F0A0FA19
:100DD8000C2303604FF0FF3008BD0449084611603A
:100DE800EBE700BFD800002000FC002078030020BB
:100DF800024B012202600B60704700BF1800002000
:100E080008B503460A460348194600F005F8FFF7F7
:100E1800C5FF00BFD04600080FB410B582B004ACBF
:100E280054F8042B084823468021019402F030F836
:100E3800002803DD0146044800F018F802B0BDE8B8
:100E4800104004B0704700BFE000002010B5044611
:100E580001F0ECFF0146204600F008F8BDE810401C
:100E68000148012100F002B8C04700082DE9F0430D
:100E7800435685B0044688460BB3E1B10E466F462B
:100E88003546102E28BF102523460DF1FF322C447D
:100E980013F8011BA34202F8011FF9D104AB2B443C
:100EA800002203F8102C4FF0040948463946ABBE1F
:100EB8008146761BE4D1404605B0BDE8F0830425A1
:100EC80028462146ABBE0446404605B0BDE8F0833F
:100ED80000F07CB800F0FCB82DE9F04104460D465E
:100EE800274890461F46069EFFF796FF216825482B
:100EF800FFF792FF61682448FFF78EFFA168234837
:100F0800FFF78AFFE1682248FFF786FF2169214839
:100F1800FFF782FF61692048FFF77EFFA1691F483C
:100F2800FFF77AFFE1691E48FFF776FF1D4C1E4860
:100F3800FFF772FF29461D48FFF76EFFE16A1C485C
:100F4800FFF76AFF216B1B48FFF766FFE16B1A4842
:100F5800FFF762FF2A060ED42B0403D5394617483B
:100F6800FFF75AFF1648FFF757FF3146BDE8F04133
:100F78001448FFF751BF41461348FFF74DFFEBE711
:100F8800284700083847000848470008584700081D
:100F9800684700087847000888470008984700080D
:100FA800A847000800ED00E0B8470008C44700085B
:100FB800D4470008E4470008F4470008144800082C
:100FC800244800082C480008044800083C4B10B48A
:100FD80019683C4A41F0010119605C6883B02240FD
:100FE8005A601A68002122F0847222F480321A6052
:100FF8001A684FF41F0022F480221A605A6822F4FB
:10100800FE025A609860009101911A6842F4803299
:101018001A6003E0009BB3F5A06F0AD0284B1B6849
:1010280003F400330193009B01330093019B002BD1
:10103800F0D0234B1B6813F4003318BF012301932E
:10104800019B012B07D0204B4FF000629A6003B040
:101058005DF8044B70471D4A194B116841F01001A7
:101068001160116821F003011160116841F002015B
:1010780011605A685A605A685A605A6842F4806225
:101088005A605A6822F47C125A605A6842F4E8128C
:101098005A601A6842F080721A60094B1A68920105
:1010A800FBD55A6822F003025A605A6842F00202DD
:1010B8005A60034B5B6803F00C03082BF9D1C2E7B5
:1010C800001002400000FFF800ED00E000200240A0
:1010D800114A536803F00C03082B0ED1536851686A
:1010E800C3F38343C90303F1020311D55268920382
:1010F8000ED40A4A02FB03F300E0084B064A0848EC
:1011080052680849C2F30312825CD3400B607047EF
:10111800054A02FB03F3F1E70010024000127A00CF
:10112800200000203000002000093D00704700BF6B
:1011380010B5044600F0D0FC204610BD30B4074D71
:10114800002200240560446341600285428582854F
:10115800C28502864286028730BC704778480008FC
:10116800406B704710B5044682B001210820FFF794
:101178009BFD62681D4B9A4221D04FF4001001215B
:10118800FFF7BAFDC023ADF8043003221C2318482A
:1011980001A98DF806208DF80730FFF759F9626824
:1011A800124B9A4215D04FF400100121FFF7CCFDE5
:1011B8004FF400100021FFF7C7FD02B010BD4FF437
:1011C80080000121FFF798FD4FF44063ADF804302B
:1011D800DBE74FF480000121FFF7B6FD4FF48000F4
:1011E8000021FFF7B1FD02B010BD00BF005800405C
:1011F800000C014038B5002304460D4680F83A300B
:1012080001214068FFF77CFB60684FF40031FFF76D
:1012180083FC0028F8D160680121FFF71DFB606896
:101228002849FFF717FC0128F9D16068D02100226E
:10123800FFF7BCFB60682449FFF70CFC0128F9D1D3
:1012480029466068FFF786FB60682049FFF702FCC3
:1012580001280546F8D160684FF2FF71FFF7CEFB11
:1012680029466068FFF7F8FA60681649FFF7F2FB4D
:101278000128F9D10246D0216068FFF797FB606822
:101288001349FFF7E7FB01280546F8D160680021FC
:10129800FFF736FB29466068FFF708FB60680D49D1
:1012A800FFF7D8FB0128F9D16068FFF769FB84F8DC
:1012B8003A0060680849FFF72FFC0028F9D194F834
:1012C8003A0038BD010003008200070084000700CF
:1012D80002000300400003001000001070B504462F
:1012E8000E46406801211546FFF70AFB60684FF477
:1012F8000031FFF711FC0028F8D160680121FFF7E1
:10130800ABFA60683149FFF7A5FB0128F9D160689D
:10131800D0210022FFF74AFB60682D49FFF79AFBAE
:101328000128F9D131466068FFF714FB6068294944
:10133800FFF790FB0128F9D101466068FFF78CFAA6
:1013480060682249FFF786FB0128F9D10246D021BF
:101358006068FFF72BFB60684FF40061FFF74EFBF6
:1013680060681D49FFF776FB0128F9D16068002104
:10137800FFF7C6FA60681949FFF7CEFB0028F9D0D5
:1013880001216068FFF792FA6068FFF7F9FA84F8BC
:101398003A006068FFF7F4FA84F83B006068104987
:1013A800FFF7BAFB0028F9D160684FF2FF71FFF729
:1013B80025FB60680121FFF7A3FA94F83A2094F816
:1013C8003B3043EA02232B8070BD00BF01000300BD
:1013D80082000700840007000200030004000010D8
:1013E80010000010F8B504460F4640680121154664
:1013F8001E46FFF785FA60684FF40031FFF78CFB53
:101408000028F8D160680121FFF726FA60681A49B8
:10141800FFF720FB0128F9D16068D0210022FFF7EF
:10142800C5FA60681549FFF715FB0128F9D1394657
:101438006068FFF78FFA60681149FFF70BFB012816
:10144800F9D12E44B54260680CD015F8011BFFF79E
:1014580081FA60680A49FFF7FDFA0128F9D1B54217
:101468006068F2D10121FFF721FA60680549FFF7AA
:1014780053FB0028F9D1F8BD0100030082000700E2
:101488008400070010000010F0B504464BF6FF7703
:1014980085B0254EFFF766FE00254FF480434FF4D4
:1014A800806260686946ADF80C30ADF80A20009695
:1014B800ADF8067004F10806ADF80450ADF8085010
:1014C800FFF7D8F860680121FFF79CF929463046F4
:1014D800202200F033FF204632460D210423FFF777
:1014E80081FF22464F2302F80C3F20461921012391
:1014F800FFF778FF204604F10E021B210223FFF7B5
:1015080071FF204604F1100212232321FFF76AFF1E
:1015180020467521FFF76EFEA0F16800B0FA80F052
:10152800400905B0F0BD00BF801A060000000000A9
:1015380010B5044600F138024121FFF7CFFEB4F997
:10154800380000F01DFC0022074B00F0A9FD04A3A1
:10155800D3E9002300F0C8FA00F08AFE606310BDEA
:10156800A4703D0AD74342400040754038B5044650
:1015780000F13805FFF7DCFF2A4620464321FFF734
:10158800ADFE238F2A46238520464521FFF7A6FE78
:10159800238F2A46638520464721FFF79FFE238F26
:1015A8002A46A38520463B21FFF798FE238F2A462B
:1015B800E38520463D21FFF791FE238F2A462386A7
:1015C80020463F21FFF78AFE238F638638BD00BF80
:1015D800704700BF10B5044600F07EFA204610BDE3
:1015E800014B0360704700BF8848000808B500F049
:1015F800D7F80020014603460C4A00F015FA0020EF
:10160800034608210A4A00F00FFA00200346102179
:10161800084A00F009FA002003461821064A00F09B
:1016280003FABDE8084000F095B800BF90480008EC
:1016380098480008A0480008A84800082DE9F0418B
:10164800041D82B008461F46904600F0ABFB224DB1
:10165800CDE900012A4620460B21089E01F0B4FB83
:10166800002122460B461A2000F0DEF9404600F021
:1016780099FB2A46CDE9000120460B2101F0A4FB85
:10168800224600231A20082100F0CEF9384600F03F
:1016980089FB2A46CDE9000120460B2101F094FB85
:1016A800224600231A20102100F0BEF9304600F02F
:1016B80079FB0A4ACDE9000120460B2101F084FBA1
:1016C80022461A201821002300F0AEF902B0BDE826
:1016D800F04100F03FB800BFC0480008C848000803
:1016E80030B4CB10542501F00701012405FB030099
:1016F8008C4032B9064A135C23EA0404145430BC03
:101708007047034B1A5C14431C5430BC704700BF2D
:101718006001002038B5054608240FE0FEF77AFF7F
:101728000B480121FEF776FF09480121FEF742FF29
:10173800631E6D0013F0FF04EDB208D015F0800FA2
:1017480003484FF00201E9D0FEF734FFE8E738BD5F
:101758000010014070B510481021FEF75BFF04210E
:101768000D48FEF757FF4020FFF7D4FF0B4C8020B1
:10177800FFF7D0FF0848042104F5FC76FEF71AFFAE
:1017880004F1540514F8010FFFF7C4FFA542F9D17D
:10179800B5422C46F4D170BD001001405F01002015
:1017A80030B5102083B01F4C0121FFF77DFA02A944
:1017B8001F2321F8043D2046032310258DF8063009
:1017C8008DF80750FEF744FE20460121FEF722FF60
:1017D80020462946FEF71EFF20460821FEF71AFF7D
:1017E80020460821FEF7E6FE04212046FEF712FFF8
:1017F8002120FFF78FFFC120FFF78CFF0620FFF79E
:1018080089FF1320FFF786FF2020FFF783FF0C20B6
:10181800FFF780FF20460421FEF7CCFEFFF79AFF72
:1018280003B030BD001001402DE9F04F9346C0EBE6
:1018380002085F1AFFB25FFA88F818F0800F5FFAA3
:1018480087FA18BFCBEB00084FFA8AFA1ABF5FFA7B
:1018580088F8FF260126BAF1000F85B0B8BFCF1A65
:101868009DF83820BABFFFB24FF0FF0C4FF0010CC3
:10187800B84589460446019236D26FB35FFA8CFCAC
:10188800CDF808B03E460D4683466446039305E00E
:10189800013E254416F0FF06EDB21AD0BAF1000F4A
:1018A800C9EB0500D8BFC5EB090000FB08F090FBA9
:1018B800F7F05844C0B25428EAD82F2DE8D8294662
:1018C800019A013EFFF70CFF254416F0FF06EDB222
:1018D800E4D1DDF808B0039BBBF1540F01D82F2BDE
:1018E8002DD905B0BDE8F08FB8F1000FF4D0F6B2ED
:1018F800CDF808B0B946454637468B4606460393A9
:101908000FE002FB09F191FBF8F15944C9B2542CDC
:1019180001D82F291BD9013D3C4415F0FF05E4B23D
:10192800D7D0BAF1000FA4EB0602EADCA11B01FB39
:1019380009F191FBF8F1C1EB0B01C9B2E7E7584691
:101948001946019A05B0BDE8F04FFFF7C9BE204619
:10195800019AFFF7C5FEDEE72DE9F04F7E2A85B034
:1019680005468A464AD8203A2C4ED2B26FEA0A0770
:101978004FEADA00542101FB00FC00FB011102EBE5
:101988004202520002F1060907F00707DFF89080CB
:10199800B14401911644C7F1070B16F8014B5BB12E
:1019A800E443E4B2BAF1000F06D00AF1FF31542D36
:1019B800C9B201D82F2925D905EB0C0118F8012047
:1019C80004F07F0404FA0BFE4EEA0202072F08F81F
:1019D800012005F10100124A08D0019907F1010E12
:1019E8000D44515D44FA0EF40C435455C5B2532DC1
:1019F80001D84E45D1D105B0BDE8F08F4032094E2F
:101A0800D2B2B3E7284601220393CDF808C0FFF706
:101A180067FE039BDDF808C0CEE700BFD04800088A
:101A280060010020584A0008F0B5044683B00F460C
:101A380015461E4603B170B92A7852B12046394678
:101A48003346FFF789FF15F8012F0634E4B2002A60
:101A5800F4D103B0F0BD0138C0B2BB1D4FF0010E88
:101A680001390246C9B2DBB2CDF800E0FFF7DCFE6F
:101A7800E2E700BF0148FFF7B3BD00BF58030020ED
:101A880010B592B00F4903A8FFF758FB0E48FFF7AF
:101A9800ADFD03A8FFF7F8FC044668B103A8FFF7FB
:101AA80065FD03A8FFF75CFB002100900A460B4682
:101AB8000548FFF7C3FDF1E703A8FFF737FB20460A
:101AC80012B010BD00540040580300200148FFF731
:101AD8007FBD00BF5803002000F028BC81F0004102
:101AE80002E000BF83F0004330B54FEA41044FEAFB
:101AF800430594EA050F08BF90EA020F1FBF54EA96
:101B0800000C55EA020C7FEA645C7FEA655C00F031
:101B1800E2804FEA5454D4EB5555B8BF6D420CDD02
:101B28002C4480EA020281EA030382EA000083EA85
:101B3800010180EA020281EA0303362D88BF30BD25
:101B480011F0004F4FEA01314FF4801C4CEA11317B
:101B580002D0404261EB410113F0004F4FEA0333DA
:101B68004CEA133302D0524263EB430394EA050F65
:101B780000F0A780A4F10104D5F1200E0DDB02FAD4
:101B88000EFC22FA05F2801841F1000103FA0EF268
:101B9800801843FA05F359410EE0A5F120050EF12E
:101BA800200E012A03FA0EFC28BF4CF0020C43FA5F
:101BB80005F3C01851EBE37101F0004507D54FF06C
:101BC800000EDCF1000C7EEB00006EEB0101B1F5BC
:101BD800801F1BD3B1F5001F0CD349085FEA300002
:101BE8004FEA3C0C04F101044FEA445212F5800F0D
:101BF80080F09A80BCF1004F08BF5FEA500C50F1AA
:101C0800000041EB045141EA050130BD5FEA4C0C8C
:101C1800404141EB010111F4801FA4F10104E9D115
:101C280091F0000F04BF01460020B1FA81F308BF0C
:101C38002033A3F10B03B3F120020CDA0C3208DDD8
:101C480002F1140CC2F10C0201FA0CF021FA02F1B3
:101C58000CE002F11402D8BFC2F1200C01FA02F123
:101C680020FA0CFCDCBF41EA0C019040E41AA2BF48
:101C780001EB0451294330BD6FEA04041F3C1CDA10
:101C88000C340EDC04F11404C4F1200220FA04F030
:101C980001FA02F340EA030021FA04F345EA0301DA
:101CA80030BDC4F10C04C4F1200220FA02F001FA9C
:101CB80004F340EA0300294630BD21FA04F029461E
:101CC80030BD94F0000F83F4801306BF81F48011B7
:101CD8000134013D4EE77FEA645C18BF7FEA655C2A
:101CE80029D094EA050F08BF90EA020F05D054EAFC
:101CF800000C04BF1946104630BD91EA030F1EBF01
:101D08000021002030BD5FEA545C05D14000494104
:101D180028BF41F0004130BD14F580043CBF01F5F7
:101D2800801130BD01F0004545F0FE4141F47001DD
:101D38004FF0000030BD7FEA645C1ABF19461046B8
:101D48007FEA655C1CBF0B46024650EA013406BFB9
:101D580052EA033591EA030F41F4002130BD00BF78
:101D680090F0000F04BF0021704730B54FF4806435
:101D780004F132044FF000054FF0000150E700BFB6
:101D880090F0000F04BF0021704730B54FF4806415
:101D980004F1320410F0004548BF40424FF0000102
:101DA8003EE700BF42004FEAE2014FEA31014FEA45
:101DB80002701FBF12F07F4393F07F4F81F0605194
:101DC800704792F0000F14BF93F07F4F704730B503
:101DD8004FF4607401F0004521F0004120E700BF96
:101DE80050EA010208BF704730B54FF000050AE01D
:101DF80050EA010208BF704730B511F0004502D51E
:101E0800404261EB41014FF4806404F132045FEA1F
:101E1800915C3FF4DCAE4FF003025FEADC0C18BFC4
:101E280003325FEADC0C18BF033202EBDC02C2F1BA
:101E3800200300FA03FC20FA02F001FA03FE40EA4C
:101E48000E0021FA02F11444C1E600BF70B54FF04C
:101E5800FF0C4CF4E06C1CEA11541DBF1CEA13552E
:101E680094EA0C0F95EA0C0F00F0DEF82C4481EA96
:101E7800030621EA4C5123EA4C5350EA013518BFB6
:101E880052EA033541F4801143F4801338D0A0FBA3
:101E980002CE4FF00005E1FB02E506F00042E0FB50
:101EA80003E54FF00006E1FB03569CF0000F18BF56
:101EB8004EF0010EA4F1FF04B6F5007F64F54074FE
:101EC80004D25FEA4E0E6D4146EB060642EAC62191
:101ED80041EA55514FEAC52040EA5E504FEACE2EFE
:101EE800B4F1FD0C88BFBCF5E06F1ED8BEF1004F01
:101EF80008BF5FEA500E50F1000041EB045170BD7D
:101F080006F0004646EA010140EA020081EA0301C0
:101F1800B4EB5C04C2BFD4EB0C0541EA045170BDBC
:101F280041F480114FF0000E013C00F3AB8014F136
:101F3800360FDEBF002001F0004170BDC4F100047F
:101F4800203C35DA0C341BDC04F11404C4F1200500
:101F580000FA05F320FA04F001FA05F240EA02005B
:101F680001F0004221F0004110EBD37021FA04F691
:101F780042EB06015EEA430E08BF20EAD37070BD4B
:101F8800C4F10C04C4F1200500FA04F320FA05F0AA
:101F980001FA04F240EA020001F0004110EBD370AC
:101FA80041F100015EEA430E08BF20EAD37070BD1C
:101FB800C4F1200500FA05F24EEA020E20FA04F3F5
:101FC80001FA05F243EA020321FA04F001F00041A4
:101FD80021FA04F220EA020000EBD3705EEA430E15
:101FE80008BF20EAD37070BD94F0000F0FD101F044
:101FF8000046400041EB010111F4801F08BF013C7D
:10200800F7D041EA060195F0000F18BF704703F0BA
:102018000046520043EB030313F4801F08BF013D41
:10202800F7D043EA0603704794EA0C0F0CEA1355FD
:1020380018BF95EA0C0F0CD050EA410618BF52EAB7
:102048004306D1D181EA030101F000414FF00000BD
:1020580070BD50EA410606BF1046194652EA4306CB
:1020680019D094EA0C0F02D150EA013613D195EA3F
:102078000C0F05D152EA03361CBF104619460AD187
:1020880081EA030101F0004141F0FE4141F4700191
:102098004FF0000070BD41F0FE4141F4780170BD81
:1020A80070B54FF0FF0C4CF4E06C1CEA11541DBFE6
:1020B8001CEA135594EA0C0F95EA0C0F00F0A7F8E8
:1020C800A4EB050481EA030E52EA03354FEA013115
:1020D80000F088804FEA03334FF0805545EA131328
:1020E80043EA12634FEA022245EA111545EA1065F0
:1020F8004FEA00260EF000419D4208BF964244F187
:10210800FD0404F5407402D25B084FEA3202B61AA5
:1021180065EB03055B084FEA32024FF480104FF479
:10212800002CB6EB020E75EB030E22BFB61A7546ED
:1021380040EA0C005B084FEA3202B6EB020E75EB80
:10214800030E22BFB61A754640EA5C005B084FEAE8
:102158003202B6EB020E75EB030E22BFB61A7546B5
:1021680040EA9C005B084FEA3202B6EB020E75EBC0
:10217800030E22BFB61A754640EADC0055EA060E81
:1021880018D04FEA051545EA16754FEA06164FEAC4
:10219800C30343EA52734FEAC2025FEA1C1CC0D170
:1021A80011F4801F0BD141EA00014FF000004FF0FD
:1021B800004CB6E711F4801F04BF01430020B4F1BE
:1021C800FD0C88BFBCF5E06F3FF6AFAEB5EB030C76
:1021D80004BFB6EB020C5FEA500C50F1000041EB73
:1021E800045170BD0EF0004E4EEA113114EB5C0440
:1021F800C2BFD4EB0C0541EA045170BD41F4801113
:102208004FF0000E013C90E645EA060E8DE60CEA1A
:10221800135594EA0C0F08BF95EA0C0F3FF43BAF37
:1022280094EA0C0F0AD150EA01347FF434AF95EAEE
:102238000C0F7FF425AF104619462CE795EA0C0FD2
:1022480006D152EA03353FF4FDAE1046194622E79F
:1022580050EA410618BF52EA43067FF4C5AE50EA79
:1022680041047FF40DAF52EA43057FF4EBAE12E769
:102278004FEA4102B2F1E04324BFB3F5001CDCF1A0
:10228800FE5C0DD901F0004C4FEAC0024CEA5070D8
:10229800B2F1004F40EB830008BF20F00100704707
:1022A80011F0804F21D113F13872BCBF01F000400A
:1022B800704741F480114FEA5252C2F11802C2F13C
:1022C800200C10FA0CF320FA02F018BF40F00100BD
:1022D8004FEAC1234FEAD32303FA0CFC40EA0C006F
:1022E80023FA02F34FEA4303CCE77FEA625307D1AC
:1022F80050EA01331EBF4FF0FE4040F440007047E3
:1023080001F0004040F0FE4040F40000704700BF7C
:10231800014B1868704700BF94000020024B01462B
:10232800186800F057B800BF94000020024B01461F
:10233800186800F00BB800BF940000200346024460
:10234800934202D003F8011BFAE7704730B5002921
:102358003CD051F8042C0B1F1D49002AB8BF9B180C
:102368000A680C4612B95A600B6030BD93420DD210
:1023780019685818904201BF5A5852181A60426892
:1023880023605A6030BD994203D80A465168002933
:10239800F9D1146815199D420AD11B682344D01835
:1023A8008842136012D10868034413604B680CE03C
:1023B80002D90C23036030BD1C681819884201BF7C
:1023C80008684968001918605960536030BD00BF3B
:1023D8006C03002070B5CC1C24F0030408340C2CCA
:1023E80038BF0C24002C064603DA0C233360002087
:1023F80070BD8C42F9D3204A136810461946A1B122
:102408000A68121B0ED40B2A03D90A608B188C5049
:102418001FE08B420BBF5A684A6802605A6018BFB7
:102428000B4616E00B464968E9E7144D2B681BB9C3
:10243800304600F0B9FC28603046214600F0B4FC74
:10244800421C0346D1D0C51C25F0030585420AD19C
:102458001C6003F10B001A1D20F00700821A0AD035
:102468005142995070BD3046E91A00F09DFC013088
:10247800BBD02B46ECE770BD6C030020680300203E
:102488002DE9F0471E4688B0149F002BB8BF06F10F
:102498000043129927F02007B6BF1E4600232D23BC
:1024A800462F1446109DDDF84CA00B7003D0452F25
:1024B80003D1013501E0032300E002238DE828045D
:1024C80006AB039307AB04932246334600F07CFD2A
:1024D800472F804602D1119BDB0726D5462F08EBF4
:1024E800050911D198F80030302B0AD12046314621
:1024F8000022002302F01AF818B9C5F10105CAF83C
:102508000050DAF800309944204631460022002372
:1025180002F00CF808B1CDF81C90079B4B4504D28B
:102528005A1C079230221A70F7E74046079B159A03
:10253800C8EB0303136008B0BDE8F087034673B522
:102548000029B8BF494203F8022BB4BF2D222B2221
:10255800092942701ADD0DF1070426460A2291FB6B
:10256800F2F502FB1511092D01F1300104F8011DE6
:102578002946F3DC3031651E04F8011CB5421A46C1
:102588000AD215F8012B03F8012BF7E71A46302475
:10259800214402F8024B5970101A02B070BD0000B5
:1025A8002DE9F04F91B08B4615461E461A9F0446FA
:1025B80001F0C4FAD0F800A0504600F037FC002320
:1025C8000E933B680990073323F0070303F10802D1
:1025D8009BF818803A60D3E90023CBE91223DBE9A2
:1025E800120100F0B9FB0128DBE9120119D1002220
:1025F800002301F0A5FF10B12D238BF84330A04B29
:10260800A04FB8F1470F88BF1F460323CBF81030FF
:10261800DBF8003023F00403CBF800304FF000095A
:10262800A1E000F099FBDBF8003048B9964A974FD3
:10263800B8F1470F88BF17460322CBF81020E9E707
:10264800DBF80420DBE91201571CCDE90A0101D1AE
:10265800062209E0B8F1670F02D0B8F1470F05D19B
:10266800002A40F0C7810122CBF80420DBF80420BF
:1026780043F480638DE80C00CBF800300DF1330390
:1026880002930DAB03930EAB059300230693CDF88D
:102698001080DDE90A232046FFF7F2FE08F0DF0389
:1026A800472B07460AD10D9BD81C03DBDBF8042017
:1026B800934237DDA8F102085FFA88F8B8F1650F90
:1026C8000D9915D8013942460BF150000D91FFF7CD
:1026D80035FF0E9A81468318012ACBF8103003DCA7
:1026E800DBF80020D10738D50133CBF8103034E0BF
:1026F800B8F1660F18D10029DBF8043009DDCBF8F2
:1027080010101BB9DBF80020D20721D501330B4488
:102718001CE01BB9DBF80020D00701D5023315E017
:10272800012313E04FF067080D9B0E9A934207DBD5
:10273800DBF80020CBF81030D10709D5013305E0CC
:10274800002BD4BFC3F1020301231344CBF810308C
:102758000D9B4FF00009CBF858309DF8333013B17A
:102768002D238BF843300096204659460FAA2B4656
:1027780000F05CF9013002D14FF0FF3052E1DBF894
:1027880000305A0505D4204629463A46DBF8103071
:1027980008E1B8F1650F40F2D080DBE912010022B0
:1027A800002301F0C3FE50B320462946384A0123CE
:1027B800B0470130E0D00E9B0D9A9A4209DBDBF856
:1027C8000030D80705D4DBF800309F0700F11081EE
:1027D80007E1204629465246099BB0470130CBD035
:1027E80000270E9B013B9F42EDDA204629460BF15C
:1027F8001A020123B0470130BED00137F1E70D9B23
:10280800002B29DC20462946214A0123B047013004
:10281800B2D00D9B2BB90E9B1BB9DBF80030D90742
:10282800D1D5204629465246099BB0470130A3D04E
:102838004FF000080D9B20465B429845294608DA70
:102848000BF11A020123B047013095D008F10108B5
:10285800F0E73A460E9BA5E0DBF858200E9B9A421B
:10286800A8BF1A46002A914602DC4FF000081CE077
:10287800204629463A464B46B0470130F5D17BE71A
:102888001E4B00081A4B0008264B0008224B000874
:102898002A4B0008204629460BF11A020123B047AB
:1028A80001303FF469AF08F10108DBF85830B9F19D
:1028B800000FB4BF1A46C9EB03029045EADB07EBE9
:1028C80003080D9A0E9B9A4210DBDBF80030DA07FA
:1028D8000CD40E9A1744C8EB07030D9FD21B9342E2
:1028E800A8BF1346002B1F4608DC0EE020462946E9
:1028F8005246099BB0470130EBD13DE720462946B7
:102908004246B04701303FF437AF4FF000080AE0C5
:10291800204629460BF11A020123B04701303FF443
:102928002BAF08F101080D9A0E9B002FA3EB0203B1
:10293800A8BFDB1B9845EBDB45E70E9A012A01DCB3
:10294800DB0736D5204629463A460123B0470130F1
:102958003FF412AF204629465246099BB047013042
:102968003FF40AAFDBE912010022002301F0DEFD8B
:10297800E8B90E9B204629467A1C013B1DE02046FB
:1029880029460BF11A020123B04701303FF4F4AE97
:1029980001370E9B013B9F42F1DB204629464B46FF
:1029A8000BF15002B04701307FF40DAFE4E6002789
:1029B800EFE7204629463A460123B0470130ECD1DB
:1029C800DAE6204629460BF119020123B047013007
:1029D8003FF4D2AE0137DBF80C300F9A9B1A9F42B6
:1029E800EFDBDBF80C000F9B9842B8BF184619E0E4
:1029F8000027F0E743F480638DE80C00CBF8003043
:102A08000DF1330302930DAB03930EAB0593002333
:102A18000693CDF810802046DDE90A23FFF730FD44
:102A2800074640E611B0BDE8F08F00BF2DE9F84336
:102A380091461F468A680B6906469342B8BF1346FB
:102A4800C9F8003091F843200C46DDF8208012B117
:102A58000133C9F800302368990642BFD9F800301D
:102A68000233C9F80030256815F006051CD094F823
:102A780043302268003318BF012392061FD5E1189E
:102A8800302081F843005A1C94F845102244023340
:102A980082F8431013E03046394604F11902012345
:102AA800C047013007D00135E368D9F800209B1AE8
:102AB8009D42F0DBDBE74FF0FF30BDE8F88330469E
:102AC800394604F14302C0470130F4D02268D9F8EE
:102AD8000050E36802F00602042A08BF5D1B226961
:102AE800A3680CBF25EAE57500259342C4BF9B1A6D
:102AF800ED184FF00009A9450ADA3046394604F1C5
:102B08001A020123C0470130D5D009F10109F2E7C3
:102B18000020BDE8F88300002DE9FF410C46174668
:102B2800227E98466E2A06460A9B01F1430100F070
:102B3800B08012D8632A23D00AD8002A00F0BD80BA
:102B4800582A40F0CC8084F84520DFF804E257E0AA
:102B5800642A1ED0692A1CD0C1E0732A00F0B18013
:102B680009D86F2A2ED0702A40F0B980226842F026
:102B7800200222603FE0752A24D0782A3BD0AEE0BC
:102B88001A6804F14205111D1960136884F842306F
:102B9800A9E020681A6810F0800F02D0101D186094
:102BA80008E010F0400F02F10400186002D0B2F9FA
:102BB800003000E01368002B3EDA2D225B4284F8D7
:102BC800432039E020681A6810F0800F02D0101DE9
:102BD800186007E010F0400F02F10400186001D0FF
:102BE800138800E01368227EDFF864E16F2A0CBFC7
:102BF80008220A221CE07822DFF858E184F84520F0
:102C08002268186812F0800F00F104051D6003D1D6
:102C1800550601D5038800E00368D00744BF42F099
:102C2800200222601BB9226822F0200222601022B2
:102C3800002084F8430002E0DFF814E10A22656806
:102C4800002DA8BF2068A560A4BF20F00400206064
:102C580003B965B10D46B3FBF2F002FB10331EF861
:102C6800033005F8013D03460028F4D100E00D4685
:102C7800082A0BD12368DA0708D5236962689A42C3
:102C8800DEBF302305F8013C05F1FF35491B216102
:102C98002EE025681A6815F0800F606903D0151DAD
:102CA8001D60136808E015F0400F02F104051D606F
:102CB800136801D0188000E01860002323610D46D6
:102CC80016E01A68111D1960156800212846626807
:102CD80000F038FF08B1401B6060636804E004F14D
:102CE800420584F8422001232361002384F84330FD
:102CF800CDF800803046214603AA3B46FFF796FEF2
:102D0800013002D14FF0FF301FE0304639462A46E5
:102D18002369C0470130F5D023689B0705D4E068D4
:102D2800039B9842B8BF18460FE00025E368039A52
:102D38009B1A9D42F3DA3046394604F11902012301
:102D4800C0470130DED00135F0E704B0BDE8F081BE
:102D58002C4B00083D4B000831F0004310B51BD048
:102D68000F4AA1F58014944210D901F1FF410C4A91
:102D780001F5E001914209D9B3F5801F08D3094A4A
:102D8800934207D1B0FA80F0400910BD042010BD6D
:102D9800032010BD002010BD0028E6D1022010BD80
:102DA800FFFFDF7F0000F07F38B5064C00230546A3
:102DB80008462360FDF7FCFF431C02D1236803B1DA
:102DC8002B6038BD700300200CB430B5164B0C1EB8
:102DD8009DB01D6804DA8B232B604FF0FF301EE096
:102DE8004FF40273ADF814300CBF234604F1FF33DF
:102DF800049307934FF6FF7302900690ADF81630D0
:102E0800284621AB02A9209A019301F0FBF9431C43
:102E1800BCBF8B232B6014B1029B00221A701DB01B
:102E2800BDE8304002B0704794000020034613F814
:102E3800012B002AFBD1181A0138704730B5141E2F
:102E48009BB0054604DA8B2303604FF0FF301CE08B
:102E58004FF40272ADF80C200CBF224604F1FF3289
:102E6800029205924FF6FF7200910491ADF80E2080
:102E780069461A461E9B01F0C5F9431CBCBF8B234B
:102E88002B6014B1009B00221A701BB030BD0000EB
:102E980073B506460D4614460093044B3146186830
:102EA8002A462346FFF7CAFF02B070BD94000020EF
:102EB8002DE9F74F03690C698046A3427EDB013C8C
:102EC80001F114074FEA840E00F1140606EB0E0315
:102ED80057F82450019356F824300135B3FBF5F523
:102EE80007EB0E09BDB34FF0000A3846B446D34687
:102EF80050F8043B9AB21B0C02FB05A26B4303EB90
:102F0800124392B2C2EB0B0BBCF800204FEA134AF3
:102F18005A441FFA83FBDCF800304845CBEB1343D7
:102F280003EB224392B242EA03424FEA234B4CF8A6
:102F3800042BDDD956F80E306BB9019B043BB34224
:102F48001A4602D8C8F8104005E01268043B002A67
:102F5800F8D1013CF3E7404601F01FF800282BDBCD
:102F6800304601354FF0000E57F8042B036891B234
:102F7800C1EB0E0E120C99B27144C2EB134303EB72
:102F8800214389B24FEA234E4F4541EA034340F8B3
:102F9800043BE9D956F8242006EB840362B9043BC4
:102FA800B3421A4602D8C8F8104005E01268043B3C
:102FB800002AF8D1013CF3E7284600E0002003B0DE
:102FC800BDE8F08F000000002DE9F04F456A95B08C
:102FD8008246219CCDE9022345B91020FFF79EF9CE
:102FE800CAF82400456085600560C560DAF82430B9
:102FF800196859B15A68012393404A608B6050465A
:1030080000F0EEFDDAF8243000221A60039BA24A91
:10301800002BBDBF01232360039B0023BCBF23F00B
:1030280000430393039FA8BF236027F000431B0DB1
:103038001B0593421DD142F20F73209A1360029B25
:1030480043B9964A964BC7F31300002814BF184695
:10305800104600E09248229B002B00F06985C37857
:1030680013B100F1080300E0C31C229A136000F0BA
:103078005FBDDDE90245002220462946002301F014
:1030880055FA804658B1209A01231360229B002BE1
:1030980000F03C8583481860013800F049BD13AB47
:1030A800009312AB0193504622462B4600F0F0FFE6
:1030B800C7F30A5607905EB1C5F3130343F07F5177
:1030C800204641F44011A6F2FF36CDF844801DE0B9
:1030D800139B129E1E446FF482639E42A1BF029A04
:1030E80006F2124322FA03F06F4BB7BF6F4B9B1BDC
:1030F800029A9B1BAABF9F4002FA03F03843FEF7CF
:103108002FFE0123A1F1F871013E11930022684BB3
:10311800FEF7E8FC5AA3D3E90023FEF797FE5AA36B
:10312800D3E90023FEF7E0FC044630460D46FEF7DF
:1031380027FE57A3D3E90023FEF788FE02460B4675
:1031480020462946FEF7D0FC04460D4601F020FA39
:103158002946834600222046002301F0F1F958B1A0
:103168005846FEF70DFE02460B462046294601F05A
:10317800DDF908B90BF1FF3BBBF1160F0DD84D4B2C
:1031880003EBCB03D3E90001DDE9022301F0F6F9F3
:1031980030B10BF1FF3B002300E00123109300E066
:1031A8001090129B9E1B731E0A9345BF5B420993A6
:1031B800002300234CBF0A930993BBF1000F07DBE0
:1031C8000A9BCDF834B05B440A9300230B9308E0C4
:1031D800099BCBEB03030993CBF100030B9300236B
:1031E8000D931E9B092B29D8052BC4BF043B1E93A6
:1031F8001E9BC8BF0025A3F10203D8BF0125032BDE
:1032080021D8DFE803F0020E0410002300E00123B8
:103218000C931F9B002B20DC0123069305931A4671
:1032280019E0002300E001230C931F9B5B440693E5
:103238000133012B0593B8BF012311E001250023B9
:103248001E930C9501E001230C934FF0FF33069376
:103258000593002212231F9202E01F9B06930593F9
:10326800DAF8244000226260042101F114029A4233
:1032780022D86268490001326260F6E7AFF3008045
:1032880061436F63A787D23FB3C8608B288AC63F64
:10329800FB799F501344D33F0000F07F4E4B00084A
:1032A800574B00082B4B00080EFCFFFFEEFBFFFFFF
:1032B8000000F83F684B00085046616800F05BFC6E
:1032C800DAF8243020601B680893059B0E2B00F267
:1032D8004781002D00F04481DDE90223BBF1000F96
:1032E800CDE90E2331DDB14A0BF00F034FEA2B165F
:1032F80002EBC303F006D3E900450CD5DDE90E0166
:10330800AB4B06F00F06D3E90823FEF7C9FE0327E7
:10331800CDE9020100E00227DFF8948276B1F107D7
:1033280008D5D8E9002320462946FEF78FFD044634
:103338000D460137761008F10808EFE7DDE90201CC
:1033480022462B46FEF7ACFE1BE0CBF10004DCB1B5
:10335800DDE90E01954B04F00F0203EBC203D3E93C
:103368000023FEF773FD924D241102274CB1E207AA
:1033780004D5D5E900230137FEF768FD6410083548
:10338800F4E7CDE9020100E00227109BDBB1DDE99B
:103398000245002220462946864B01F0D1F890B11B
:1033A800059B83B1069B002B40F3D6802946204617
:1033B8000022814BFEF74AFD0BF1FF36CDE90201F1
:1033C8000137069D01E05E46059D3846DDE9028924
:1033D800FEF7D6FC42464B46FEF738FD774B0022F7
:1033E800FEF782FBCDE90201039BA3F1507403941D
:1033F800CDB9404649460022714BFEF773FB029A4D
:1034080023468046894601F0B9F8002840F04082FA
:1034180040464946029A04F1004301F091F8002819
:1034280040F0308298E0614B0C996A1E03EBC203AE
:10343800002947D0D3E9002300206249FEF730FE77
:10344800DDE90223FEF74EFBCDE90201089C49465F
:10345800404601F09DF80746FEF792FC02460B46EF
:1034680040464946FEF73EFBDDE90223303704F8C3
:10347800017B8046894601F063F8002840F03783D5
:1034880042464B4600204B49FEF72CFBDDE9022360
:1034980001F056F8002840F0D080089BE31AAB42B0
:1034A8005ADADDE902010022434BFEF7CFFC002285
:1034B800CDE90201404B40464946FEF7C7FC80462D
:1034C8008946C4E7D3E90001DDE90223FEF7BEFC23
:1034D800089BCDE902015C191D464946404601F0AA
:1034E80057F80746FEF74CFC02460B46404649464D
:1034F800FEF7F8FA303705F8017BA5428046894681
:1035080023D100222F4BDDE90201FEF7EDFA024636
:103518000B464046494601F031F8002840F08D80BE
:10352800DDE9022300202749FEF7DCFA02460B46B4
:103538004046494601F004F870B114F8013C621E97
:10354800302B40F0D4821446F7E700221A4BFEF7DE
:103558007DFC80468946C0E7DDE90E23CDE90223DC
:10356800139B002BC0F28A80BBF10E0F00F38680FC
:103578000E4B03EBCB03D3E900671F9B002B23DA29
:10358800059B002B20DC40F07C81304600220C4B50
:103598003946FEF75BFCDDE9022300F0E5FF059DF7
:1035A8002E46002840F06F8174E100BF684B000888
:1035B800304C00080000F03F0000244000001C4090
:1035C800000014400000E03F089CDDE90289324613
:1035D8003B4640464946FEF763FD00F0D9FF0546E5
:1035E800FEF7CEFB32463B46FEF730FC0B46024662
:1035F80049464046FEF776FA05F1300E089B04F876
:1036080001EBC3EB040E059B9E452AD102460B46EF
:10361800FEF76AFA32463B468046894600F0AEFF1E
:1036280070B94046494632463B4600F07FFF0028C5
:1036380000F05E82EB0703D45AE2B34600E01C4672
:1036480014F8012C631E392A07D1089A9342F6D13F
:103658003023137013460BF1010B1A7801321A70DC
:1036680046E20022A34BFEF7F1FB0022002380462E
:10367800894600F05BFF0028A9D039E20C9A002A9D
:1036880032D01E9A012A0ADC119A12B103F233438E
:1036980002E0129BC3F136030B9D099C18E0059BC1
:1036A8005D1E0B9BAB42B7BF0B9B5D1BEA1A0D9BC4
:1036B800BEBF0B959B180D93059BB8BF0025002B2B
:1036C800B9BF099B059A099C059BBCBF9C1A00239E
:1036D800099A50461A4409920A9A01211A440A92F0
:1036E80000F020FB064602E00B9D099C0C9E64B18D
:1036F8000A9B002B09DDA342A8BF2346099AE41AB6
:10370800D21A09920A9AD31A0A930B9B002B20DD2E
:103718000C9BC3B1002D10DD31462A46504600F0FF
:103728009BFB0646079A3146504600F004FB0746C5
:103738000799504600F054FA07970B9B5A1B08D07C
:103748005046079902E0504607990B9A00F084FB0F
:1037580007905046012100F0E5FA0D9B0546002B25
:103768000ADD29461A46504600F076FB1E9B0546A0
:10377800012B04DD00271BE01E9B012B13DC029BA1
:103788008BB9039BC3F313037BB9039B23F0004757
:103798003F0D3F0557B1099B0127013309930A9B48
:1037A80001330A9302E0002700E0029F0D9B43B11A
:1037B8002B6905EB8303186900F067FAC0F1200054
:1037C80000E001200A9B184410F01F0008D0C0F147
:1037D8002003042B02DDC0F11C0002E008D01846CB
:1037E8001C30099B0444034409930A9B03440A932D
:1037F800099B002B05DD504607991A4600F07AFB15
:1038080007900A9B002B05DD294650461A4600F012
:1038180071FB0546109BEBB10798294600F0BDFBEC
:10382800002817DA0023504607990A2200F0EFF91A
:103838000C9B0BF1FF3B0790002B00F06B8131468E
:10384800002350460A2200F0E2F9069B0646002BA8
:1038580033DC68E1059B002B26DC1E9B022B23DD55
:10386800059B0693069B73B929460522504600F02E
:10387800CEF905460798294600F08FFB002809DC99
:1038880001E000252E461F9B089C6FEA030B08E009
:10389800B3462E46089B089A5C1C312313700BF123
:1038A800010BB14600260FE10C9B23B9059B06933B
:1038B800089F079CC9E0059B0693002C05DD31464F
:1038C8005046224600F016FB0646AFB171685046D6
:1038D80000F051F90446326906F10C0102329200F7
:1038E8000C3000F03DF950462146012200F002FB61
:1038F800814602E000002440B146089F079C294603
:103908002046FFF7D5FA3146099000F130082046E5
:1039180000F043FB4A4605902946504600F059FB03
:10392800C26803463AB919462046079300F035FBAA
:10393800079B024600E0012250461946079200F014
:103948004FF9079A92B91E9B83B9029B03F00103B2
:1039580063B9B8F1390F3B4607943ED0059B7C1CF0
:10396800002BC4BF099B03F131083DE0059B002BE8
:1039780004DA002AC446079408DC21E024D11E9BFF
:1039880013BB029B03F00103F3B9F2E721460122BE
:1039980050460597CDF8088000F0ACFA2946079004
:1039A80000F0FBFA0028DDF808C0059B03DC07D10E
:1039B80018F0010F04D0B8F1390F0ED008F1010C3E
:1039C8007C1C87F800C07FE0002A07F101020EDDA9
:1039D800B8F1390F3B46079403D1392201371A70E1
:1039E80057E0144608F1010887F800806CE0089B4E
:1039F8001746D31A02F8018C069A93423AD0214608
:103A08000A220023504600F002F94E45044631468A
:103A180050464FF00A024FF0000304D100F0F7F8C7
:103A2800064681466BE700F0F2F8494606460A2248
:103A38005046002300F0EBF8814660E721465046E7
:103A48000A22002300F0E3F8044620462946FFF73F
:103A58002FFA089B00F1300807F8018B069AFB1A29
:103A68009342EBDB089BB146012AACBF9B1801339C
:103A78001F46002621460122504600F03BFA2946FF
:103A8800079000F08AFA002803DC15D118F0010F1E
:103A980012D03C4614F8013C621E392B09D1089B10
:103AA8009A4204D10BF1010B3123089A02E0144623
:103AB800F0E70133137007E03C4614F8013C621E3E
:103AC800302B01D11446F8E75046294600F088F813
:103AD800B9F1000F0CD02EB14E4503D050463146F7
:103AE80000F07EF85046494600F07AF800E0B34608
:103AF8005046079900F074F80023209A23700BF1C0
:103B080001031360229B1BB11C6001E00A480FE00F
:103B180008980DE0069B002B3FF7CAAE1E9B022BB0
:103B28003FF7A0AEC4E61E9B022B3FF79BAEC4E650
:103B380015B0BDE8F08F00BF2A4B00080048704759
:103B48009800002010B5C9B202449042034605D03F
:103B58001C7801308C42F8D1184610BD002010BDE9
:103B680010B5431E0A44914204D011F8014B03F8E2
:103B7800014FF8E710BD70B5456A04460E463DB9D9
:103B88001020FEF7CBFB6062456085600560C5606C
:103B9800656AEB6843B1636ADB6853F8260078B15D
:103BA800026843F8262017E020460421212200F06D
:103BB800C1FA636AE860DB68002BECD1002070BDB5
:103BC800012101FA06F56A1D2046920000F0B2FABA
:103BD8000028F3D04660856000230361C36070BD90
:103BE80070B5446A06460D463CB91020FEF796FBB0
:103BF8007062446084600460C4603DB1736A6A683E
:103C0800DB6853F82210296043F8225070BD2DE973
:103C1800F04106460C460F69984601F1140E002340
:103C2800DEF80000013385B2010C02FB0585514323
:103C380001EB1541ADB24FEA1148BB4205EB01411A
:103C48004EF8041BECDBB8F1000F1BD0A3689F42B1
:103C580012DB616830460131FFF78DFF05462269A6
:103C680004F10C01023292000C30FFF779FF214673
:103C78003046FFF7B5FF2C4604EB87030137C3F83E
:103C8800148027612046BDE8F081030C1B0413B99A
:103C98000004102300E0002310F07F4F04BF00024F
:103CA800083310F0704F04BF0001043310F0404F88
:103CB80004BF80000233002803DB420003D5581CF0
:103CC80070471846704720207047036813F00702B2
:103CD8000BD0D90722D49A074BBF5B089B08036017
:103CE80003604CBF01200220704799B209B91B0C30
:103CF800102213F0FF0F04BF1B0A0832190704BF74
:103D08001B090432990704BF9B080232D90702D461
:103D18005B0805D0013203601046704700207047E9
:103D28002020704710B50C460121FFF724FF01221F
:103D38004461026110BD2DE9F74F14460A692369F1
:103D480088469A42BEBF0B46A0461C46D8F810705B
:103D5800D4F81090D8F80830D8F8041007EB090602
:103D68009E42C8BF0131FFF706FF00F114052B463C
:103D780005EB860C634503D2002243F8042BF9E7D0
:103D880004F1140208F1140102EB890301EB87071F
:103D98000093009B01929A4257D2B2F800B0BBF14F
:103DA800000F23D08946AE464FF0000859F8044B5F
:103DB800BEF800A0A3B20BFB03A34FEA144ADEF837
:103DC800004043444FEA14480BFB0A84F24604EBD4
:103DD80013449BB243EA04434F454FEA14484AF858
:103DE800043B01D9D646E1E7CEF80480019B0432B2
:103DF800B3F802A0BAF1000F21D02C4689462B68EF
:103E08004FF00008B9F800E0B4F802B09BB20AFB22
:103E18000EBEA346F04443EA08434BF8043B59F866
:103E2800043BB4F804E01B0C0AFB03E3B94503EBBD
:103E380018434FEA134801D25C46E3E76360043550
:103E4800A7E75CF8043D13B9013E002EF9DC0661D2
:103E580003B0BDE8F08F000012F003032DE9F04134
:103E680006460F46154607D0214A013B52F8232043
:103E78000023FFF7CCFE0746AD1035D0746A3CB975
:103E88001020FEF74BFA7062446084600460C460DE
:103E9800D6F82480D8F808407CB9304640F2712121
:103EA800FFF740FF0023C8F808000446036004E059
:103EB8006D1019D0206870B10446EB07F8D5394663
:103EC80022463046FFF737FF804639463046FFF72F
:103ED80087FE4746ECE7304621462246FFF72BFF90
:103EE800002320600360E7E73846BDE8F08100BFA3
:103EF800584C00082DE9F0470C460746164623693A
:103F08004FEA621A0AEB03094968A36809F1010537
:103F18009D4202DD01315B00FAE73846FFF72BFED0
:103F2800804600F114010023534504DA002241F8C9
:103F380023200133F8E72AEAEA73206901EB8303B7
:103F480016F01F0204F1140101EB800E14D0C2F127
:103F5800200C00200E689A469640304343F8040B24
:103F680051F8040B714520FA0CF0F3D3CAF8040099
:103F780048B109F1020506E0043B51F8042B7145EC
:103F880043F8042FF9D3013D3846C8F810502146AC
:103F9800FFF726FE4046BDE8F08703690A6910B5B9
:103FA8009B1A11D192001430143183180A4453F823
:103FB800044D52F8041D8C4202D007D3012010BDD5
:103FC8008342F4D8002010BD184610BD4FF0FF30D2
:103FD80010BD2DE9F84307460C460846114615461C
:103FE800FFF7DBFF061E08D138463146FFF7C3FD51
:103FF800012303614661BDE8F883BCBF23462C4614
:1040080038466168BABF1D4601260026FFF7B3FD92
:104018002B69C660266905F1140904F1140101EB46
:10402800860709EB830800F114054FF0000C51F8DE
:10403800042B59F8044B93B29C44A3B2240CC3EB51
:104048000C03C4EB124202EB23429BB24FEA224C10
:10405800C84543EA02428E4645F8042BE7D8BE45D8
:104068000ED25EF8043B9AB262441B0C03EB224367
:1040780092B242EA03424FEA234C45F8042BEEE79A
:1040880055F8043D0BB9013EFAE70661BDE8F8832F
:104098002DE9F3411C4601211546089F099EFFF7AB
:1040A8006AFDC4F31302C4F30A5480460CB142F407
:1040B80080120192EDB102A840F8085DFFF705FEF5
:1040C800009B50B1019AC0F1200102FA01F10B43A3
:1040D800C240C8F81430019201E0C8F81430019BBE
:1040E800002B14BF02250125C8F81830C8F8105055
:1040F80009E001A8FFF7E9FD019B0125C8F8143084
:10410800C8F81050203034B1A4F2334404443C6061
:10411800C0F1350009E0A0F2324008EB85033860B1
:104128001869FFF7B2FDC0EB45103060404602B099
:10413800BDE8F08138B502FB01F42146FEF74AF9E3
:10414800054618B100212246FEF7F8F8284638BD82
:104158002DE9F0478E688246B3420C469046994650
:1041680040D38A8912F4906F3AD0256809690223EE
:104178006F1A656905EB450595FBF3F57B1C4B4408
:104188009D4238BF1D4653050FD52946FEF722F933
:10419800064698B121693A46FFF7E2FCA38923F461
:1041A800906343F08003A38113E02A4600F037F9B7
:1041B800064670B950462169FEF7C8F80C23CAF8BC
:1041C8000030A3894FF0FF3043F04003A381BDE8DE
:1041D800F08726613E4426604E466561ED1BA5606A
:1041E800B14500D24E4632462068414600F0FCF800
:1041F800A36800209B1BA36023681E442660BDE8BB
:10420800F08700002DE9F0439DB003938B890646A3
:104218001C060D4690460CD50B6953B94021FEF794
:10422800D9F82860286110B90C233360CCE040230A
:104238006B610023099320238DF8293030238DF8F2
:104248002A3043461C4613F8012B1AB9B4EB080967
:104258000FD002E0252AF5D1F8E730462946424634
:104268004B46FFF775FF013000F0A980099B4B44CE
:1042780009932378002B00F0A28000234FF0FF322F
:1042880004930793059206938DF853301A9304F11B
:1042980001084446DFF84891217848460522FFF78F
:1042A80051FC08F10108049B30B1C9EB0000012260
:1042B800824013430493ECE7D80644BF20228DF8CC
:1042C8005320190744BF2B228DF8532022782A2A1D
:1042D80002D0079923460EE0039A0134111D126893
:1042E8000391002ABBBF524243F002030792079290
:1042F800B8BF04930AE01C4622780133303A092AF1
:1043080003D80A2000FB0121F5E7079123782E2B1B
:104318001AD163782A2B0AD1039B02341A1D1B6811
:104328000392002BB8BF4FF0FF3305930CE0611CDC
:1043380000220C4623780131303B092B03D80A2090
:1043480000FB0232F5E70592DFF8988021784046B5
:104358000322FFF7F7FB38B1049AC8EB00004023AB
:10436800834013430493013421781A48062204F148
:1043780001088DF82810FFF7E5FB88B1164B33B913
:10438800039B073323F007030833039313E003ABBE
:104398000093304604A92A46104BFEF701F907E0BE
:1043A80003AB0093304604A92A460C4BFEF7B4FB36
:1043B800421C074603D0099B3B44099341E7AB895C
:1043C8005B0601D4099801E04FF0FF301DB0BDE84D
:1043D800F08300BF6E4C0008A92500085941000869
:1043E800644C00086A4C0008814210B501EB0203D6
:1043F80001D3421E0BE09842FBD28118D21AD34255
:1044080004D013F8014D01F8014DF8E710BD9942A9
:1044180004D011F8014B02F8014FF8E710BDF8B5C8
:10442800074615460E4621B91146BDE8F840FDF786
:10443800D1BF1AB9FDF78AFF2846F8BD00F015F874
:10444800A8420ED238462946FDF7C4FF044650B1AB
:1044580031462A46FFF784FB38463146FDF776FF9A
:1044680001E03046F8BD2046F8BD51F8040C00289C
:10447800BEBF091851F8043CC01804387047000042
:104488004FF0FF3C06E000BF4FF0010C02E000BF18
:104498004FF0010C4DF804CD4FEA410C7FEA6C5CFB
:1044A8004FEA430C18BF7FEA6C5C1BD001B050EA9E
:1044B800410C0CBF52EA430C91EA030F02BF90EA89
:1044C800020F0020704710F1000F91EA030F58BF48
:1044D800994208BF90422CBFD8176FEAE37040F0AA
:1044E800010070474FEA410C7FEA6C5C02D150EA48
:1044F800013C07D14FEA430C7FEA6C5CD6D152EA03
:10450800033CD3D05DF8040B704700BF84461046C7
:1045180062468C461946634600E000BF01B5FFF7C6
:10452800B7FF002848BF10F1000F01BD4DF808ED96
:10453800FFF7F4FF0CBF012000205DF808FB00BF67
:104548004DF808EDFFF7EAFF34BF012000205DF8C1
:1045580008FB00BF4DF808EDFFF7E0FF94BF01200E
:1045680000205DF808FB00BF4DF808EDFFF7CEFF0F
:1045780094BF012000205DF808FB00BF4DF808ED4E
:10458800FFF7C4FF34BF012000205DF808FB00BF1F
:104598004FEA410212F5001215D211D56FF4787363
:1045A800B3EB625212D94FEAC12343F0004343EA06
:1045B800505311F0004F23FA02F018BF40427047E1
:1045C8004FF00000704750EA013005D111F000406B
:1045D80008BF6FF0004070474FF00000704700BF01
:1045E8002E2E2F73797374656D2F7372632F737406
:1045F8006D333266312D7374647065726970682F1B
:1046080073746D3332663130785F6770696F2E630B
:10461800000000002E2E2F73797374656D2F73724E
:10462800632F73746D333266312D737464706572E1
:104638006970682F73746D3332663130785F693210
:10464800632E63002E2E2F73797374656D2F73722A
:10465800632F73746D333266312D737464706572B1
:104668006970682F73746D3332663130785F7263A6
:10467800632E630061626F727428292C2065786943
:1046880074696E672E2E2E002C2066756E63746911
:104698006F6E3A2000000000617373657274696F71
:1046A8006E2022257322206661696C65643A206653
:1046B800696C6520222573222C206C696E65202583
:1046C80064257325730A00006173736572745F70E3
:1046D8006172616D2829206661696C65643A20669B
:1046E800696C6520222573222C206C696E65202553
:1046F800640A00006D61696E28617267633D256414
:104708002C20617267763D5B000000005D293B0A42
:10471800000000002C200000222573220000000069
:10472800537461636B206672616D653A0A0000001C
:10473800205230203D2020253038580A0000000043
:10474800205231203D2020253038580A0000000032
:10475800205232203D2020253038580A0000000021
:10476800205233203D2020253038580A0000000010
:1047780020523132203D20253038580A00000000F0
:10478800204C52203D2020253038580A00000000D7
:10479800205043203D2020253038580A00000000D2
:1047A80020505352203D20253038580A0000000080
:1047B8004653522F4641523A0A00000020434653BE
:1047C80052203D2020253038580A00002048465302
:1047D80052203D2020253038580A000020444653F6
:1047E80052203D2020253038580A000020414653E9
:1047F80052203D2020253038580A0000204D4D46D3
:104808004152203D20253038580A000020424641B8
:1048180052203D2020253038580A00004D69736326
:104828000A000000204C522F4558435F524554550A
:10483800524E3D20253038580A0000005B4861720E
:10484800644661756C745D0A000000005B42757314
:104858004661756C745D0A005B55736167654661F6
:10486800756C745D0A000000000000000000000084
:104878003511000839110008000000000000000090
:10488800D9150008DD150008202020583A0000003E
:10489800202020593A0000002020205A3A00000029
:1048A80054454D503A00000025332E3130660A0039
:1048B80025332E313066000025332E366600000081
:1048C80025332E3466000000000000000000002F91
:1048D80000000000000300030000143E143E140012
:1048E80012257F2912001309043211001A25357A7E
:1048F80000000003000000000000001E2100211E2F
:104908000000000014081400000008083E08080011
:1049180040300000000008080808000000200000DF
:1049280000002018040300001E2525291E0020224F
:104938003F202000322929292600122121251A008A
:104948001814123F10002725252519001E25252596
:1049580018000101390503001A2525251A00062922
:1049680029291E00001200000000C0B280808000CB
:104978000008142200001414141400000022140863
:1049880000000201290600000000000000003C0AA7
:10499800090A3C003F2525251A001E212121120065
:1049A8003F2121120C003F25252521003F05050543
:1049B80001001E2129291A003F0404043F00002198
:1049C8003F2100001020211F01003F040A11200090
:1049D8003F20202020003F020C023F003F02040835
:1049E8003F001E2121211E003F09090906001E2142
:1049F80029313E403F0909192600122525291200B0
:104A080001013F0101001F2020201F00031C201C62
:104A180003001F2018201F00310A040A3100030474
:104A2800380403003129252321000000003F21001C
:104A3800030418200000213F0000000004020102C6
:104A480004002020202020000001020000000000B7
:104A58003C0A090A3C003F25252911003F25252548
:104A68001A003F0101010100603C223F60003F2520
:104A780025252100310A3F0A3100122121251A007B
:104A88003F1008043F003F1009043F003F040A118B
:104A98002000201E01013F003F0204023F003F04A6
:104AA80004043F001E2121211E003F0101013F0097
:104AB8003F09090906001E212121120001013F01B9
:104AC8000100132424241F001C123F121C00310A69
:104AD800040A31003F2020203F60070808083F00F3
:104AE8003F203F203F003F203F203F60013F2424DC
:104AF80018003F2438003F00003F242418001221EA
:104B080025251E003F041E211E00261909093F0005
:104B18004300494E4600696E66004E414E006E6184
:104B28006E0030003031323334353637383941424F
:104B380043444546003031323334353637383961ED
:104B4800626364656600496E66696E697479004ED1
:104B5800614E00504F534958002E000000000000DD
:104B6800000000000000F03F0000000000002440AA
:104B780000000000000059400000000000408F4085
:104B8800000000000088C34000000000006AF840F0
:104B98000000000080842E4100000000D012634114
:104BA8000000000084D797410000000065CDCD418A
:104BB800000000205FA00242000000E8764837426B
:104BC800000000A2941A6D42000040E59C30A24209
:104BD8000000901EC4BCD64200003426F56B0C437E
:104BE8000080E03779C3414300A0D8855734764325
:104BF80000C84E676DC1AB43003D9160E458E14386
:104C0800408CB5781DAF154450EFE2D6E41A4B44FA
:104C180092D54D06CFF08044F64AE1C7022DB5443F
:104C2800B49DD9794378EA440080E03779C3414399
:104C3800176E05B5B5B89346F5F93FE9034F384DFA
:104C4800321D30F94877825A3CBF737FDD4F1575A6
:104C580005000000190000007D000000232D302B06
:104C68002000686C4C0065666745464700000000F8
:104C780078563412020406080000000001020304FA
:104C88000102030406070809DC00002000000000F8
:104C980000000000000000000102030406070809E4
:104CA80000A24A040000000000000000000000000C
:104CB80000000000000000000000000000000000EC
:104CC80000000000184B0008000000000000000071
:104CD80000000000000000000000000000000000CC
:104CE80000000000000000000000000000000000BC
:104CF80000000000000000000000000000000000AC
:104D08000000000034000020614B0008694C0008D6
:104D1800694C0008694C0008694C0008694C000897
:104D2800694C0008694C0008694C0008694C000887
:104D3800FFFFFFFFFFFFFFFFFFFFFFFFFFFF000079
:044D480032547698D3
:04000005080001E509
:00000001FF
