:020000040800F2
:1000000000000120A5020008A9020008AB020008B8
:10001000E9020008EB0200080103000800000000EC
:1000200000000000000000000000000017030008AE
:1000300019030008000000001B0300081D0300084E
:1000400031030008310300083103000831030008C0
:1000500031030008310300083103000831030008B0
:1000600031030008310300083103000831030008A0
:100070003103000831030008310300083103000890
:100080003103000831030008310300083103000880
:100090003103000831030008310300083103000870
:1000A0003103000831030008310300083103000860
:1000B0003103000831030008310300083103000850
:1000C0003103000831030008310300083103000840
:1000D0003103000831030008310300083103000830
:1000E0003103000831030008310300083103000820
:1000F0003103000831030008310300083103000810
:1001000031030008310300083103000831030008FF
:1001100031030008310300083103000831030008EF
:1001200031030008310300083103000831030008DF
:1001300000000000000000000000000000000000BF
:1001400000000000000000000000000000000000AF
:10015000000000000000000000000000000000009F
:10016000000000000000000000000000000000008F
:10017000000000000000000000000000000000007F
:10018000000000000000000000000000000000006F
:10019000000000000000000000000000000000005F
:1001A000000000000000000000000000000000004F
:1001B000000000000000000000000000000000003F
:1001C000000000000000000000000000000000002F
:1001D000000000000000000000000000000000001F
:1001E0005FF8E0F107B500F06FFA234A234B24498A
:1001F0008B4204D252F8041F43F8041BF7E7214B4B
:10020000214A934203D2002243F8042BF8E700F07E
:100210005DFA684601A900F04FFA1C4B1C4C1E46C3
:10022000E41AA4100025A54204DA56F825309847B0
:100230000135F8E7174B184C1E46E41AA4100025A8
:10024000A54204DA56F8253098470135F8E79DE8CD
:10025000030000F09BFF114B06461D46104CE41AAC
:10026000A410002C04DD013C55F824309847F8E731
:10027000304600F0FDF900BF5C25000800000020BA
:100280009400002094000020B002002034030008F5
:10029000340300083403000838030008380300085A
:1002A0003C0300081E480047FEE71EF0040F0CBF89
:1002B000EFF30880EFF3098071461A4A104710B532
:1002C000084C236B9B070BD5E36A002B08DA4BF62F
:1002D000AB6100F00DFA18B14FF00043E36210BDBE
:1002E000FEE700BF00ED00E0FEE71EF0040F0CBFCC
:1002F000EFF30880EFF3098071460B4A1047FEE7E1
:100300001EF0040F0CBFEFF30880EFF30980714675
:10031000064A1047FEE7FEE7FEE7FEE770470000EB
:10032000E5010008BF020008FF02000815030008ED
:04033000FEE70000E4
:0803340081110008D911000835
:10034000CA78F0B5D40648BF8C780D8802F00F0348
:1003500048BF234315F0FF0F1DD00168002401267C
:10036000A64006EA0507B74211D14FEA840E0F26D0
:1003700006FA0EF621EA0601282A03FA0EF641EAE9
:10038000060101D1476102E0482A08BF0761013434
:10039000082CE4D10160FF2D1FD94168002404F12D
:1003A00008070126BE4006EA0507B74211D14FEA09
:1003B000840E0F2606FA0EF621EA0601282A03FA11
:1003C0000EF641EA060101D1476102E0482A08BF62
:1003D00007610134082CE2D14160F0BD0161704732
:1003E0004161704770B586B00446868801A80D4605
:1003F00000F0D6F8039A2E4826F03F06B2FBF0F044
:100400003604360C81B20E43A6802388294E23F091
:1004100001031B041B0C23802B68B3420AD85B002A
:10042000B2FBF3F301319BB2032B89B298BF0423D3
:10043000218423E04BF6FF71EE888E421BBF192109
:100440004B4303EB4303B2FBF3F30BBFB2FBF3F3FA
:100450009BB29BB243F48043C3F30B020AB943F04F
:1004600001034FF4967101FB00F24FF47A7192FB95
:10047000F1F2013292B243F400432284A383238831
:1004800069899BB243F0010323802388AA8823F45F
:10049000816323F002031B040A431B0C13439BB22A
:1004A00023802A89AB8913439BB2238106B070BD98
:1004B00040420F00A0860100038819B19BB243F0AF
:1004C000010303E023F001031B041B0C03807047AE
:1004D000038819B19BB243F4807303E023F4807363
:1004E0001B041B0C03807047038819B19BB243F4B3
:1004F000007303E023F400731B041B0C038070479C
:10050000038819B19BB243F4806303E023F4806352
:100510001B041B0C0380704701827047008AC0B225
:10052000704712B141F0010101E001F0FE0189B212
:10053000018270470388B1F5006F15BF23F4006393
:100540009BB21B0443F4006318BF1B0C038070476D
:10055000838A10B59AB2038B21F07F4442EA0343A9
:1005600004EA0300431A5842584110BD82B00023E8
:10057000009301930B0F01900093009B21F07F41AA
:1005800013B1019B143302E0019B090C1833019352
:10059000019B1B68194214BF0120002002B0704764
:1005A0001C4A10B5536803F00C03042B01D0082B30
:1005B00001D0194B0EE053685168C3F38343CC0359
:1005C00003F1020302D55168890301D5134900E004
:1005D00011494B4303605368114CC3F30313E15CAF
:1005E0000368CB4043605168C1F30221615C23FA88
:1005F00001F181605168C1F3C221615CCB40C360ED
:1006000052680849C2F381328A5CB3FBF2F303619A
:1006100010BD00BF0010024000127A0000093D002A
:100620000400002000000020044B9A6909B1104327
:1006300001E022EA00009861704700BF001002400C
:10064000044BDA6909B1104301E022EA0000D861E5
:10065000704700BF00100240044B1A6909B11043F3
:1006600001E022EA00001861704700BF001002405C
:1006700008B500F02DF8000008B50C4B1A680AB94F
:100680000B4A1A601A68C31C23F003030949134478
:100690008B4206D901F0C2F90C2303604FF0FF3002
:1006A00008BD024910460B6008BD00BF9400002041
:1006B000B002002000FC002001230360014B0B600E
:1006C000704700BF1400002000F020B800F098B878
:1006D000BFF34F8F0449054BCA6802F4E06213432D
:1006E000CB60BFF34F8FFEE700ED00E00400FA059A
:1006F00083691A888A4207D10268033A012A03D81B
:10070000023383610120704700207047384B82B06C
:100710001A6842F001021A605968364A0A405A6063
:100720001A6822F0847222F480321A601A6822F465
:1007300080221A605A6822F4FE025A604FF41F02A7
:100740009A600022009201921A6842F480321A6084
:100750001A6802F400320192009A01320092019A62
:100760001AB9009AB2F5A06FF2D11A6812F40032E9
:1007700018BF01220192019A012A05D01E4B4FF0A9
:1007800000629A6002B070471C4A116841F0100183
:100790001160116821F003011160116841F002013C
:1007A00011605A685A605A685A605A6842F4806206
:1007B0005A605A6822F47C125A605A6842F4E8126D
:1007C0005A601A6842F080721A601968084A8901F2
:1007D000FBD5516821F003015160516841F00201DD
:1007E00051605A6802F00C02082AFAD1C6E700BF2D
:1007F000001002400000FFF800ED00E00020024081
:10080000114A124B516801F00C01042901D008294A
:1008100001D00F490EE051685068C1F38341C00315
:1008200001F1020102D55068800301D5094800E0BA
:1008300007484143196052680749C2F30312895CB3
:100840001A68CA401A607047001002402C0000204D
:1008500000127A0000093D001C000020704710B50E
:10086000044600F0BFFC204610BD0000064A41606F
:10087000026000210022028542858285C2850286AF
:10088000428641630287704798220008406B704798
:1008900013B5044601210820FFF7C6FE62681F4B0E
:1008A0009A4207D14FF480000121FFF7C9FE4FF4AF
:1008B000406305E04FF400100121FFF7C1FEC023A3
:1008C000ADF8043003238DF8063015481C2301A928
:1008D0008DF80730FFF734FD4FF480000121FFF75A
:1008E000BBFE4FF480000021FFF7B6FE62680B4BA1
:1008F0009A4207D14FF480000121FFF7ADFE4FF47B
:10090000800006E04FF400100121FFF7A5FE4FF430
:1009100000100021FFF7A0FE02B010BD00580040FB
:10092000000C014038B5002304460D4680F83A30EB
:1009300001214068FFF7E4FD60684FF40031FFF7E4
:1009400015FE0028F8D160680121FFF7C1FD60683D
:100950002849FFF7FDFD0128F9D16068D021002268
:10096000FFF7DFFD60682449FFF7F2FD0128F9D1A8
:1009700060682946FFF7D0FD60682049FFF7E8FD71
:1009800001280546F8D160684FF2FF71FFF7D2FDEC
:1009900060682946FFF79CFD60681649FFF7D8FD9F
:1009A00001280246F8D16068D021FFF7BAFD6068DF
:1009B0001349FFF7CDFD01280546F8D160680021F5
:1009C000FFF79EFD60682946FFF78EFD60680D49C0
:1009D000FFF7BEFD0128F9D16068FFF79FFD84F89D
:1009E0003A0060680849FFF7C1FD0028F9D194F882
:1009F0003A0038BD010003008200070084000700B0
:100A000002000300400003001000001070B504460F
:100A10000E46406801211546FFF772FD60684FF4ED
:100A20000031FFF7A3FD0028F8D160680121FFF72E
:100A30004FFD60683149FFF78BFD0128F9D16068EF
:100A4000D0210022FFF76DFD60682D49FFF780FD82
:100A50000128F9D160683146FFF75EFD29496068D9
:100A6000FFF776FD01280146F8D16068FFF730FDF9
:100A700060682249FFF76CFD01280246F8D16068E2
:100A8000D021FFF74EFD60684FF40061FFF752FD83
:100A900060681D49FFF75CFD0128F9D160680021FD
:100AA000FFF72EFD60681949FFF760FD0028F9D0B7
:100AB00001216068FFF718FD6068FFF72FFD84F8DB
:100AC0003A006068FFF72AFD84F83B00606810492F
:100AD000FFF74CFD0028F9D160684FF2FF71FFF776
:100AE00029FD60680121FFF70BFD94F83A2094F886
:100AF0003B3043EA02232B8070BD00BF010003009E
:100B000082000700840007000200030004000010B8
:100B100010000010F8B504460F4640680121154644
:100B20001E46FFF7EDFC60684FF40031FFF71EFD35
:100B30000028F8D160680121FFF7CAFC60681949F4
:100B4000FFF706FD0128F9D16068D0210022FFF7E8
:100B5000E8FC60681449FFF7FBFC0128F9D16068E4
:100B60003946FFF7D9FC60681049FFF7F1FC01280E
:100B7000F9D12E44B54260680AD015F8011BFFF781
:100B8000CBFC60680949FFF7E3FC0128F9D1F1E7E4
:100B90000121FFF7A9FC60680549FFF7E7FC002881
:100BA000F9D1F8BD010003008200070084000700AE
:100BB000100000107FB50446FFF76AFE244B0025A5
:100BC00000934BF6FF73ADF806304FF48063ADF839
:100BD0000A3060684FF480436946ADF80C3004F188
:100BE0000806ADF80450ADF80850FFF7FBFB60684D
:100BF0000121FFF761FC29463046202200F01CFF4E
:100C0000204632460D210423FFF784FF22464F235E
:100C100002F80C3F204619210123FFF77BFF2046F5
:100C200004F10E021B210223FFF774FF204604F19A
:100C3000100212232321FFF76DFF20467521FFF7D5
:100C400071FEA0F168035842584104B070BD00BF66
:100C5000801A06000000000010B5044600F13802BA
:100C60004121FFF7D3FEB4F9380000F00FFC002259
:100C7000074B00F09BFD04A3D3E9002300F0BAFA70
:100C800000F07CFE606310BDA4703D0AD743424073
:100C90000040754010B50446432100F13802FFF7CB
:100CA000B5FE238F238510BD10B50446452100F104
:100CB0003802FFF7ABFE238F638510BD10B50446E5
:100CC000472100F13802FFF7A1FE238FA38510BD55
:100CD00010B504463B2100F13802FFF797FE238F41
:100CE000E38510BD10B504463D2100F13802FFF741
:100CF0008DFE238F238610BD10B504463F2100F1E1
:100D00003802FFF783FE238F638610BD10B50446BB
:100D1000FFF7A2FF2046FFF7BDFF2046FFF7C4FF05
:100D20002046FFF7CBFF2046FFF7D2FF2046FFF714
:100D3000D9FF2046BDE81040FFF7DEBF704710B571
:100D4000044600F04FFA204610BD0000014B03603E
:100D5000704700BFA822000808B500F0B9F80020CD
:100D6000014603460C4A00F0F5F90020034608212D
:100D70000A4A00F0EFF9002003461021084A00F06B
:100D8000E9F9002003461821064A00F0E3F9BDE81E
:100D9000084000F077B800BFB0220008B622000873
:100DA000BC220008C22200082DE9F341041D0846B8
:100DB0001F46904600F07CFB214DCDE900012A46FC
:100DC00020460B21089E00F0E9FE002122460B463A
:100DD0001A2000F0BFF9404600F06AFB2A46CDE930
:100DE000000120460B2100F0D9FE224600231A20E4
:100DF000082100F0AFF9384600F05AFB2A46CDE949
:100E0000000120460B2100F0C9FE224600231A20D3
:100E1000102100F09FF9304600F04AFB094ACDE965
:100E2000000120460B2100F0B9FE1A2018212246AD
:100E3000002300F08FF902B0BDE8F04100F022B8C5
:100E4000D7220008DD22000838B5054608242B0605
:100E50000B484FF0020102D5FFF7C0FA01E0FFF79F
:100E6000BFFA07480121FFF7BBFA013C0448012102
:100E70006D00FFF7B3FA14F0FF04EDB2E7D138BD0F
:100E80000010014038B510481021FFF7A9FA0421DD
:100E90000D48FFF7A5FA4020FFF7D6FF8020FFF7A7
:100EA000D3FF09480421FFF799FA00250024074BD6
:100EB0002B44185D0134FFF7C7FF542CF7D154358C
:100EC000B5F5FC7FF2D138BD00100140990000203B
:100ED00037B510200121FFF7A7FB1E4C032302A901
:100EE0008DF806301F2321F8043D102520468DF88B
:100EF0000750FFF725FA20460121FFF771FA204637
:100F00002946FFF76DFA20460821FFF769FA2046C7
:100F10000821FFF763FA04212046FFF761FA212038
:100F2000FFF792FFC120FFF78FFF0620FFF78CFF2E
:100F30001320FFF789FF2020FFF786FF0C20FFF723
:100F400083FF20460421FFF749FAFFF79BFF03B018
:100F500030BD00BF00100140542810B512D82F2911
:100F600010D8CB10542401F0070104FB0300012327
:100F70008B40054912B10A5C134302E00A5C22EA85
:100F800003030B5410BD00BF990000202DE9F04F62
:100F90009B46924685B09DF83830C1EB0B05EDB20B
:100FA000141A0293EBB2E4B201932206019B43BFF1
:100FB000CAEB0004E4B24FF0FF094FF001091B0631
:100FC00043BFCBEB0105EDB24FF0FF0C4FF0010C2E
:100FD000AC4280460F4602D2A9460E4623E0234685
:100FE0000646C3B1C8EB0601694391FBF4F19DF9D4
:100FF00004203046002ACCBFC919791AC9B2029A16
:101000000393FFF7A9FF039B4E4403F1FF3CF6B2A5
:101010005FFA8CF3E5E750465946029A05B0BDE801
:10102000F04FFFF799BFB9F1000FF4D09DF90420FC
:101030003146002ACCBFF01BB81B604390FBF5F093
:101040004044C0B2029ACDF80CC0FFF785FFDDF82E
:101050000CC009F1FF396644F6B25FFA89F9E2E79C
:101060002DE9F04F8A466FEA010883467E2A94BF35
:10107000203A40324FF0060194BFD2B2D2B201FB07
:1010800002F285B04FF0540900924FEADA0209FBF0
:1010900002F102FB099994BFDFF890C0DFF890C01D
:1010A00008F0070801910027009AFEB206EB0B0535
:1010B0006244EDB2D45D8BB1E443E4B2BAF1000F07
:1010C0000CD00AF1FF312846C9B201220393CDF8B2
:1010D00008C0FFF741FF039BDDF808C0019A04F048
:1010E0007F045019104AC8F1070104FA01FE115C8F
:1010F000B8F1070F4EEA010111541FBF4D4408F12A
:1011000001010C41515D1CBF0C4354550BF1010210
:10111000164406F0FF06532E02D80137062FC3D11E
:1011200005B0BDE8F08F00BF99000020E322000861
:101130006924000807B550B101384A1E8B1DC0B2A2
:1011400001210091DBB2D1B20246FFF71FFF03B0CD
:101150005DF804FBF8B504460F4615461E460BB174
:10116000FFF7E8FF013D15F8012F3AB12046394657
:1011700033460634FFF774FFE4B2F4E7F8BD00002D
:101180000148FFF7E3BD00BF9402002010B592B004
:101190000F4903A8FFF76AFB0E48FFF7DDFD03A820
:1011A000FFF708FD044668B103A8FFF7AFFD03A8E9
:1011B000FFF76CFB002100900A4606480B46FFF73C
:1011C000F3FDF1E703A8FFF749FB204612B010BD7D
:1011D00000580040940200200148FFF7AFBD00BF57
:1011E0009402002000F020BC81F0004102E000BF2A
:1011F00083F0004330B54FEA41044FEA430594EAD7
:10120000050F08BF90EA020F1FBF54EA000C55EA11
:10121000020C7FEA645C7FEA655C00F0E2804FEAE2
:101220005454D4EB5555B8BF6D420CDD2C4480EAC4
:10123000020281EA030382EA000083EA010180EAF4
:10124000020281EA0303362D88BF30BD11F0004F42
:101250004FEA01314FF4801C4CEA113102D0404278
:1012600061EB410113F0004F4FEA03334CEA1333B3
:1012700002D0524263EB430394EA050F00F0A780CB
:10128000A4F10104D5F1200E0DDB02FA0EFC22FAC6
:1012900005F2801841F1000103FA0EF2801843FABA
:1012A00005F359410EE0A5F120050EF1200E012AAB
:1012B00003FA0EFC28BF4CF0020C43FA05F3C018E9
:1012C00051EBE37101F0004507D54FF0000EDCF162
:1012D000000C7EEB00006EEB0101B1F5801F1BD30B
:1012E000B1F5001F0CD349085FEA30004FEA3C0C0F
:1012F00004F101044FEA445212F5800F80F09A8005
:10130000BCF1004F08BF5FEA500C50F1000041EB08
:10131000045141EA050130BD5FEA4C0C404141EB0C
:10132000010111F4801FA4F10104E9D191F0000F33
:1013300004BF01460020B1FA81F308BF2033A3F1B6
:101340000B03B3F120020CDA0C3208DD02F1140CAD
:10135000C2F10C0201FA0CF021FA02F10CE002F1E8
:101360001402D8BFC2F1200C01FA02F120FA0CFCE1
:10137000DCBF41EA0C019040E41AA2BF01EB04512A
:10138000294330BD6FEA04041F3C1CDA0C340EDC28
:1013900004F11404C4F1200220FA04F001FA02F36B
:1013A00040EA030021FA04F345EA030130BDC4F129
:1013B0000C04C4F1200220FA02F001FA04F340EA1E
:1013C0000300294630BD21FA04F0294630BD94F0CF
:1013D000000F83F4801306BF81F480110134013DB6
:1013E0004EE77FEA645C18BF7FEA655C29D094EA27
:1013F000050F08BF90EA020F05D054EA000C04BFA5
:101400001946104630BD91EA030F1EBF002100208F
:1014100030BD5FEA545C05D14000494128BF41F02E
:10142000004130BD14F580043CBF01F5801130BD92
:1014300001F0004545F0FE4141F470014FF000001D
:1014400030BD7FEA645C1ABF194610467FEA655CCE
:101450001CBF0B46024650EA013406BF52EA033570
:1014600091EA030F41F4002130BD00BF90F0000F5E
:1014700004BF0021704730B54FF4806404F132049A
:101480004FF000054FF0000150E700BF90F0000F53
:1014900004BF0021704730B54FF4806404F132047A
:1014A00010F0004548BF40424FF000013EE700BF4A
:1014B00042004FEAE2014FEA31014FEA02701FBFDA
:1014C00012F07F4393F07F4F81F06051704792F0AC
:1014D000000F14BF93F07F4F704730B54FF4607426
:1014E00001F0004521F0004120E700BF50EA010271
:1014F00008BF704730B54FF000050AE050EA01021E
:1015000008BF704730B511F0004502D5404261EB8D
:1015100041014FF4806404F132045FEA915C3FF4CE
:10152000DCAE4FF003025FEADC0C18BF03325FEA67
:10153000DC0C18BF033202EBDC02C2F1200300FA1C
:1015400003FC20FA02F001FA03FE40EA0E0021FA41
:1015500002F11444C1E600BF70B54FF0FF0C4CF42B
:10156000E06C1CEA11541DBF1CEA135594EA0C0FE1
:1015700095EA0C0F00F0DEF82C4481EA030621EA1C
:101580004C5123EA4C5350EA013518BF52EA033557
:1015900041F4801143F4801338D0A0FB02CE4FF009
:1015A0000005E1FB02E506F00042E0FB03E54FF039
:1015B0000006E1FB03569CF0000F18BF4EF0010E31
:1015C000A4F1FF04B6F5007F64F5407404D25FEA2D
:1015D0004E0E6D4146EB060642EAC62141EA5551E0
:1015E0004FEAC52040EA5E504FEACE2EB4F1FD0C22
:1015F00088BFBCF5E06F1ED8BEF1004F08BF5FEAA0
:10160000500E50F1000041EB045170BD06F0004651
:1016100046EA010140EA020081EA0301B4EB5C04FE
:10162000C2BFD4EB0C0541EA045170BD41F48011F6
:101630004FF0000E013C00F3AB8014F1360FDEBF1B
:10164000002001F0004170BDC4F10004203C35DAF7
:101650000C341BDC04F11404C4F1200500FA05F37A
:1016600020FA04F001FA05F240EA020001F000421B
:1016700021F0004110EBD37021FA04F642EB060191
:101680005EEA430E08BF20EAD37070BDC4F10C04BB
:10169000C4F1200500FA04F320FA05F001FA04F27F
:1016A00040EA020001F0004110EBD37041F100016B
:1016B0005EEA430E08BF20EAD37070BDC4F1200576
:1016C00000FA05F24EEA020E20FA04F301FA05F2DE
:1016D00043EA020321FA04F001F0004121FA04F286
:1016E00020EA020000EBD3705EEA430E08BF20EA56
:1016F000D37070BD94F0000F0FD101F00046400090
:1017000041EB010111F4801F08BF013CF7D041EA11
:10171000060195F0000F18BF704703F00046520015
:1017200043EB030313F4801F08BF013DF7D043EAE6
:101730000603704794EA0C0F0CEA135518BF95EA9C
:101740000C0F0CD050EA410618BF52EA4306D1D123
:1017500081EA030101F000414FF0000070BD50EA42
:10176000410606BF1046194652EA430619D094EACC
:101770000C0F02D150EA013613D195EA0C0F05D1B6
:1017800052EA03361CBF104619460AD181EA03010A
:1017900001F0004141F0FE4141F470014FF00000C2
:1017A00070BD41F0FE4141F4780170BD70B54FF05D
:1017B000FF0C4CF4E06C1CEA11541DBF1CEA1355DD
:1017C00094EA0C0F95EA0C0F00F0A7F8A4EB0504BF
:1017D00081EA030E52EA03354FEA013100F08880B6
:1017E0004FEA03334FF0805545EA131343EA12637F
:1017F0004FEA022245EA111545EA10654FEA002634
:101800000EF000419D4208BF964244F1FD0404F5EC
:10181000407402D25B084FEA3202B61A65EB030548
:101820005B084FEA32024FF480104FF4002CB6EB05
:10183000020E75EB030E22BFB61A754640EA0C0085
:101840005B084FEA3202B6EB020E75EB030E22BFC5
:10185000B61A754640EA5C005B084FEA3202B6EB06
:10186000020E75EB030E22BFB61A754640EA9C00C5
:101870005B084FEA3202B6EB020E75EB030E22BF95
:10188000B61A754640EADC0055EA060E18D04FEA53
:10189000051545EA16754FEA06164FEAC30343EAF3
:1018A00052734FEAC2025FEA1C1CC0D111F4801FC0
:1018B0000BD141EA00014FF000004FF0004CB6E7B9
:1018C00011F4801F04BF01430020B4F1FD0C88BF58
:1018D000BCF5E06F3FF6AFAEB5EB030C04BFB6EB63
:1018E000020C5FEA500C50F1000041EB045170BD56
:1018F0000EF0004E4EEA113114EB5C04C2BFD4EB83
:101900000C0541EA045170BD41F480114FF0000E06
:10191000013C90E645EA060E8DE60CEA135594EA82
:101920000C0F08BF95EA0C0F3FF43BAF94EA0C0F85
:101930000AD150EA01347FF434AF95EA0C0F7FF4FA
:1019400025AF104619462CE795EA0C0F06D152EA4E
:1019500003353FF4FDAE1046194622E750EA410632
:1019600018BF52EA43067FF4C5AE50EA41047FF443
:101970000DAF52EA43057FF4EBAE12E74FEA4102A6
:10198000B2F1E04324BFB3F5001CDCF1FE5C0DD9DD
:1019900001F0004C4FEAC0024CEA5070B2F1004F27
:1019A00040EB830008BF20F00100704711F0804F2A
:1019B00021D113F13872BCBF01F00040704741F4EF
:1019C00080114FEA5252C2F11802C2F1200C10FAF3
:1019D0000CF320FA02F018BF40F001004FEAC123D7
:1019E0004FEAD32303FA0CFC40EA0C0023FA02F37B
:1019F0004FEA4303CCE77FEA625307D150EA013351
:101A00001EBF4FF0FE4040F44000704701F0004020
:101A100040F0FE4040F40000704700BF014B1868E2
:101A2000704700BF90000020024B0146186800F08C
:101A30000BB800BF9000002003460244934202D03E
:101A400003F8011BFAE7704730B500293CD051F884
:101A5000042C0B1F1D49002AB8BF9B180A680C46AE
:101A600012B95A600B6030BD93420DD219685818F4
:101A7000904201BF5A5852181A60426823605A6057
:101A800030BD994203D80A4651680029F9D114683B
:101A900015199D420AD11B682344D018884213604F
:101AA00012D10868034413604B680CE002D90C2380
:101AB000036030BD1C681819884201BF0868496876
:101AC000001918605960536030BD00BFA8020020A3
:101AD00070B5CC1C24F0030408340C2C38BF0C2443
:101AE000002C064603DA0C233360002070BD8C42C4
:101AF000F9D3204A136810461946A1B10A68121B8F
:101B00000ED40B2A03D90A608B188C501FE08B422D
:101B10000BBF5A684A6802605A6018BF0B4616E04D
:101B20000B464968E9E7144D2B681BB9304600F0B5
:101B300025F828603046214600F020F8421C034674
:101B4000D1D0C51C25F0030585420AD11C6003F1E4
:101B50000B001A1D20F00700821A0AD0514299503A
:101B600070BD3046E91A00F009F80130BBD02B46B1
:101B7000ECE770BDA8020020A402002038B5064C96
:101B80000023054608462360FEF776FD431C02D17C
:101B9000236803B12B6038BDAC0200200CB430B513
:101BA000164B0C1E9DB01D6804DA8B232B604FF082
:101BB000FF301EE04FF40273ADF814300CBF234623
:101BC00004F1FF33049307934FF6FF7302900690DE
:101BD000ADF81630284621AB02A9209A019300F0F7
:101BE00069F8431CBCBF8B232B6014B1029B0022FD
:101BF0001A701DB0BDE8304002B070479000002060
:101C00002DE9F0478E688246B3420C4690469946CD
:101C100040D38A8912F4906F3AD02568096902236B
:101C20006F1A656905EB450595FBF3F57B1C4B4485
:101C30009D4238BF1D4653050FD52946FFF748FF83
:101C4000064698B121693A4600F0CAFAA38923F4FE
:101C5000906343F08003A38113E02A4600F0E6FA84
:101C6000064670B950462169FFF7EEFE0C23CAF80C
:101C70000030A3894FF0FF3043F04003A381BDE85B
:101C8000F08726613E4426604E466561ED1BA560E7
:101C9000B14500D24E4632462068414600F0ABFACC
:101CA000A36800209B1BA36023681E442660BDE838
:101CB000F08700002DE9F0439DB003938B89064621
:101CC0001C060D4690460CD50B6953B94021FFF711
:101CD000FFFE2860286110B90C233360CCE040235C
:101CE0006B610023099320238DF8293030238DF870
:101CF0002A3043461C4613F8012B1AB9B4EB0809E5
:101D00000FD002E0252AF5D1F8E7304629464246B1
:101D10004B46FFF775FF013000F0A980099B4B444B
:101D200009932378002B00F0A28000234FF0FF32AC
:101D300004930793059206938DF853301A9304F198
:101D400001084446DFF8489121784846052200F012
:101D500039FA08F10108049B30B1C9EB00000122F7
:101D6000824013430493ECE7D80644BF20228DF849
:101D70005320190744BF2B228DF8532022782A2A9A
:101D800002D0079923460EE0039A0134111D126810
:101D90000391002ABBBF524243F00203079207920D
:101DA000B8BF04930AE01C4622780133303A092A6E
:101DB00003D80A2000FB0121F5E7079123782E2B99
:101DC0001AD163782A2B0AD1039B02341A1D1B688F
:101DD0000392002BB8BF4FF0FF3305930CE0611C5A
:101DE00000220C4623780131303B092B03D80A200E
:101DF00000FB0232F5E70592DFF898802178404633
:101E0000032200F0DFF938B1049AC8EB0000402348
:101E1000834013430493013421781A48062204F1C5
:101E200001088DF8281000F0CDF988B1164B33B9B0
:101E3000039B073323F007030833039313E003AB3B
:101E40000093304604A92A46104BAFF3008007E008
:101E500003AB0093304604A92A460C4B00F092F8DD
:101E6000421C074603D0099B3B44099341E7AB89D9
:101E70005B0601D4099801E04FF0FF301DB0BDE8CA
:101E8000F08300BF3525000800000000011C000899
:101E90002B250008312500082DE9F84391461F46FF
:101EA0008A680B6906469342B8BF1346C9F80030EA
:101EB00091F843200C46DDF8208012B10133C9F8B7
:101EC00000302368990642BFD9F800300233C9F8C0
:101ED0000030256815F006051CD094F843302268C0
:101EE000003318BF012392061FD5E118302081F876
:101EF00043005A1C94F845102244023382F84310E0
:101F000013E03046394604F119020123C04701307D
:101F100007D00135E368D9F800209B1A9D42F0DB19
:101F2000DBE74FF0FF30BDE8F8833046394604F177
:101F30004302C0470130F4D02268D9F80050E3686A
:101F400002F00602042A08BF5D1B2269A3680CBFC9
:101F500025EAE57500259342C4BF9B1AED184FF0A2
:101F60000009A9450ADA3046394604F11A0201236C
:101F7000C0470130D5D009F10109F2E70020BDE8E2
:101F8000F88300002DE9FF410C461746227E984653
:101F90006E2A06460A9B01F1430100F0B08012D878
:101FA000632A23D00AD8002A00F0BD80582A40F0C6
:101FB000CC8084F84520DFF804E257E0642A1ED084
:101FC000692A1CD0C1E0732A00F0B18009D86F2AB9
:101FD0002ED0702A40F0B980226842F020022260A0
:101FE0003FE0752A24D0782A3BD0AEE01A6804F18D
:101FF0004205111D1960136884F84230A9E0206879
:102000001A6810F0800F02D0101D186008E010F060
:10201000400F02F10400186002D0B2F9003000E075
:102020001368002B3EDA2D225B4284F8432039E00E
:1020300020681A6810F0800F02D0101D186007E0A9
:1020400010F0400F02F10400186001D0138800E086
:102050001368227EDFF864E16F2A0CBF08220A228F
:102060001CE07822DFF858E184F8452022681868DF
:1020700012F0800F00F104051D6003D1550601D553
:10208000038800E00368D00744BF42F020022260CA
:102090001BB9226822F0200222601022002084F85E
:1020A000430002E0DFF814E10A226568002DA8BFB2
:1020B0002068A560A4BF20F00400206003B965B1CA
:1020C0000D46B3FBF2F002FB10331EF8033005F8A7
:1020D000013D03460028F4D100E00D46082A0BD14B
:1020E0002368DA0708D5236962689A42DEBF302385
:1020F00005F8013C05F1FF35491B21612EE02568FB
:102100001A6815F0800F606903D0151D1D601368F3
:1021100008E015F0400F02F104051D60136801D0BE
:10212000188000E01860002323610D4616E01A684D
:10213000111D1960156800212846626800F042F8F8
:1021400008B1401B6060636804E004F1420584F854
:10215000422001232361002384F84330CDF800801E
:102160003046214603AA3B46FFF796FE013002D1D6
:102170004FF0FF301FE0304639462A462369C047FA
:102180000130F5D023689B0705D4E068039B984293
:10219000B8BF18460FE00025E368039A9B1A9D42DA
:1021A000F3DA3046394604F119020123C047013001
:1021B000DED00135F0E704B0BDE8F0813C25000831
:1021C0004D25000810B5C9B202449042034605D01F
:1021D0001C7801308C42F8D1184610BD002010BD8B
:1021E00010B5431E0A44914204D011F8014B03F884
:1021F000014FF8E710BD814210B501EB020301D396
:10220000421E0BE09842FBD28118D21AD34204D06E
:1022100013F8014D01F8014DF8E710BD994204D0C3
:1022200011F8014B02F8014FF8E710BDF8B5074669
:1022300015460E4621B91146BDE8F840FFF748BCE7
:102240001AB9FFF701FC2846F8BD00F015F8A842BE
:102250000ED238462946FFF73BFC044650B13146C2
:102260002A46FFF7BDFF38463146FFF7EDFB01E098
:102270003046F8BD2046F8BD51F8040C0028BEBF1A
:10228000091851F8043CC0180438704700000000D9
:1022900000000000000000005D0800085F08000862
:1022A00000000000000000003D0D00083F0D000888
:1022B000202020583A00202020593A002020205A7F
:1022C0003A0054454D503A0025332E3130660A000D
:1022D00025332E3130660025332E36660025332E09
:1022E000346600000000000000002F000000000025
:1022F0000300030000143E143E140012257F29122F
:10230000001309043211001A25357A000000030079
:102310000000000000001E2100211E00000000142B
:10232000081400000008083E0808004030000000C3
:102330000008080808000000200000000020180421
:102340000300001E2525291E0020223F20200032E8
:102350002929292600122121251A001814123F10BC
:10236000002725252519001E2525251800010139DE
:102370000503001A2525251A00062929291E000013
:102380001200000000C0B28080800000081422000B
:102390000014141414000000221408000002012983
:1023A0000600000000000000003C0A090A3C003F53
:1023B0002525251A001E21212112003F2121120C62
:1023C000003F25252521003F05050501001E212987
:1023D000291A003F0404043F0000213F210000109F
:1023E00020211F01003F040A1120003F202020204F
:1023F000003F020C023F003F0204083F001E212163
:10240000211E003F09090906001E2129313E403FD7
:10241000090919260012252529120001013F010191
:10242000001F2020201F00031C201C03001F201859
:10243000201F00310A040A3100030438040300316C
:1024400029252321000000003F210003041820005B
:1024500000213F00000000040201020400202020AF
:102460002020000001020000003C0A090A3C003F55
:1024700025252911003F2525251A003F01010101CD
:1024800000603C223F60003F2525252100310A3FA6
:102490000A3100122121251A003F1008043F003F95
:1024A0001009043F003F040A112000201E01013FD3
:1024B000003F0204023F003F0404043F001E2121AC
:1024C000211E003F0101013F003F09090906001ECE
:1024D000212121120001013F010100132424241FA6
:1024E000001C123F121C00310A040A31003F202058
:1024F000203F60070808083F003F203F203F003F83
:10250000203F203F60013F242418003F2438003F33
:1025100000003F24241800122125251E003F041E20
:10252000211E00261909093F004300232D302B20CE
:1025300000686C4C006566674546470030313233B1
:10254000343536373839414243444546003031321C
:0E2550003334353637383961626364656600AE
:102560000204060800000000010203040102030443
:102570000607080998000020000000000000000085
:1025800000000000010203040607080900A24A0433
:10259000000000000000000000000000000000003B
:1025A000000000000000000000000000000000002B
:1025B00029250008000000000000000000000000C5
:1025C000000000000000000000000000000000000B
:1025D00000000000000000000000000000000000FB
:1025E00000000000000000000000000000000000EB
:0425F0003000002097
:04000005080001E509
:00000001FF
